{
	"_format": "hh-sol-artifact-1",
	"contractName": "PkYellowNft",
	"sourceName": "contracts/PkYellowNft.sol",
	"abi": [
		{
			"inputs": [],
			"stateMutability": "nonpayable",
			"type": "constructor"
		},
		{
			"anonymous": false,
			"inputs": [
				{
					"indexed": true,
					"internalType": "address",
					"name": "owner",
					"type": "address"
				},
				{
					"indexed": true,
					"internalType": "address",
					"name": "approved",
					"type": "address"
				},
				{
					"indexed": true,
					"internalType": "uint256",
					"name": "tokenId",
					"type": "uint256"
				}
			],
			"name": "Approval",
			"type": "event"
		},
		{
			"anonymous": false,
			"inputs": [
				{
					"indexed": true,
					"internalType": "address",
					"name": "owner",
					"type": "address"
				},
				{
					"indexed": true,
					"internalType": "address",
					"name": "operator",
					"type": "address"
				},
				{
					"indexed": false,
					"internalType": "bool",
					"name": "approved",
					"type": "bool"
				}
			],
			"name": "ApprovalForAll",
			"type": "event"
		},
		{
			"anonymous": false,
			"inputs": [
				{
					"indexed": true,
					"internalType": "address",
					"name": "from",
					"type": "address"
				},
				{
					"indexed": false,
					"internalType": "uint256",
					"name": "tokenId",
					"type": "uint256"
				}
			],
			"name": "NewMint",
			"type": "event"
		},
		{
			"anonymous": false,
			"inputs": [
				{
					"indexed": true,
					"internalType": "address",
					"name": "from",
					"type": "address"
				},
				{
					"indexed": true,
					"internalType": "address",
					"name": "to",
					"type": "address"
				},
				{
					"indexed": true,
					"internalType": "uint256",
					"name": "tokenId",
					"type": "uint256"
				}
			],
			"name": "Transfer",
			"type": "event"
		},
		{
			"inputs": [],
			"name": "MAX_MINT",
			"outputs": [
				{
					"internalType": "uint256",
					"name": "",
					"type": "uint256"
				}
			],
			"stateMutability": "view",
			"type": "function"
		},
		{
			"inputs": [],
			"name": "MAX_PER_ADDRESS",
			"outputs": [
				{
					"internalType": "uint256",
					"name": "",
					"type": "uint256"
				}
			],
			"stateMutability": "view",
			"type": "function"
		},
		{
			"inputs": [
				{
					"internalType": "address",
					"name": "to",
					"type": "address"
				},
				{
					"internalType": "uint256",
					"name": "tokenId",
					"type": "uint256"
				}
			],
			"name": "approve",
			"outputs": [],
			"stateMutability": "nonpayable",
			"type": "function"
		},
		{
			"inputs": [
				{
					"internalType": "address",
					"name": "owner",
					"type": "address"
				}
			],
			"name": "balanceOf",
			"outputs": [
				{
					"internalType": "uint256",
					"name": "",
					"type": "uint256"
				}
			],
			"stateMutability": "view",
			"type": "function"
		},
		{
			"inputs": [
				{
					"internalType": "uint256",
					"name": "tokenId",
					"type": "uint256"
				}
			],
			"name": "getApproved",
			"outputs": [
				{
					"internalType": "address",
					"name": "",
					"type": "address"
				}
			],
			"stateMutability": "view",
			"type": "function"
		},
		{
			"inputs": [
				{
					"internalType": "address",
					"name": "owner",
					"type": "address"
				},
				{
					"internalType": "address",
					"name": "operator",
					"type": "address"
				}
			],
			"name": "isApprovedForAll",
			"outputs": [
				{
					"internalType": "bool",
					"name": "",
					"type": "bool"
				}
			],
			"stateMutability": "view",
			"type": "function"
		},
		{
			"inputs": [],
			"name": "mintPokemon",
			"outputs": [],
			"stateMutability": "nonpayable",
			"type": "function"
		},
		{
			"inputs": [],
			"name": "name",
			"outputs": [
				{
					"internalType": "string",
					"name": "",
					"type": "string"
				}
			],
			"stateMutability": "view",
			"type": "function"
		},
		{
			"inputs": [
				{
					"internalType": "uint256",
					"name": "tokenId",
					"type": "uint256"
				}
			],
			"name": "ownerOf",
			"outputs": [
				{
					"internalType": "address",
					"name": "",
					"type": "address"
				}
			],
			"stateMutability": "view",
			"type": "function"
		},
		{
			"inputs": [],
			"name": "publicIssued",
			"outputs": [
				{
					"internalType": "uint256",
					"name": "",
					"type": "uint256"
				}
			],
			"stateMutability": "view",
			"type": "function"
		},
		{
			"inputs": [
				{
					"internalType": "address",
					"name": "from",
					"type": "address"
				},
				{
					"internalType": "address",
					"name": "to",
					"type": "address"
				},
				{
					"internalType": "uint256",
					"name": "tokenId",
					"type": "uint256"
				}
			],
			"name": "safeTransferFrom",
			"outputs": [],
			"stateMutability": "nonpayable",
			"type": "function"
		},
		{
			"inputs": [
				{
					"internalType": "address",
					"name": "from",
					"type": "address"
				},
				{
					"internalType": "address",
					"name": "to",
					"type": "address"
				},
				{
					"internalType": "uint256",
					"name": "tokenId",
					"type": "uint256"
				},
				{
					"internalType": "bytes",
					"name": "_data",
					"type": "bytes"
				}
			],
			"name": "safeTransferFrom",
			"outputs": [],
			"stateMutability": "nonpayable",
			"type": "function"
		},
		{
			"inputs": [
				{
					"internalType": "address",
					"name": "operator",
					"type": "address"
				},
				{
					"internalType": "bool",
					"name": "approved",
					"type": "bool"
				}
			],
			"name": "setApprovalForAll",
			"outputs": [],
			"stateMutability": "nonpayable",
			"type": "function"
		},
		{
			"inputs": [
				{
					"internalType": "bytes4",
					"name": "interfaceId",
					"type": "bytes4"
				}
			],
			"name": "supportsInterface",
			"outputs": [
				{
					"internalType": "bool",
					"name": "",
					"type": "bool"
				}
			],
			"stateMutability": "view",
			"type": "function"
		},
		{
			"inputs": [],
			"name": "symbol",
			"outputs": [
				{
					"internalType": "string",
					"name": "",
					"type": "string"
				}
			],
			"stateMutability": "view",
			"type": "function"
		},
		{
			"inputs": [
				{
					"internalType": "uint256",
					"name": "tokenId",
					"type": "uint256"
				}
			],
			"name": "tokenURI",
			"outputs": [
				{
					"internalType": "string",
					"name": "",
					"type": "string"
				}
			],
			"stateMutability": "view",
			"type": "function"
		},
		{
			"inputs": [
				{
					"internalType": "address",
					"name": "from",
					"type": "address"
				},
				{
					"internalType": "address",
					"name": "to",
					"type": "address"
				},
				{
					"internalType": "uint256",
					"name": "tokenId",
					"type": "uint256"
				}
			],
			"name": "transferFrom",
			"outputs": [],
			"stateMutability": "nonpayable",
			"type": "function"
		}
	],
	"bytecode": "0x608060405260026009556064600a556000600b5560405180610120016040528060e281526020016200460c60e29139600c908051906020019062000045929190620005af565b506040518060a00160405280606981526020016200430960699139600d908051906020019062000077929190620005af565b506040518060400160405280601581526020017f3c2f746578743e3c696d61676520687265663d22200000000000000000000000815250600e9080519060200190620000c5929190620005af565b5060405180608001604052806041815260200162004c6860419139600f9080519060200190620000f7929190620005af565b506040518060a001604052806040518060400160405280600981526020017f42756c626173617572000000000000000000000000000000000000000000000081525081526020016040518060400160405280600a81526020017f436861726d616e6465720000000000000000000000000000000000000000000081525081526020016040518060400160405280600881526020017f5371756972746c6500000000000000000000000000000000000000000000000081525081526020016040518060400160405280600781526020017f50696b616368750000000000000000000000000000000000000000000000000081525081526020016040518060400160405280600581526020017f456576656500000000000000000000000000000000000000000000000000000081525081525060109060056200023a92919062000640565b506040518060a001604052806040518060400160405280600781526020017f233942434335300000000000000000000000000000000000000000000000000081525081526020016040518060400160405280600781526020017f234644374432340000000000000000000000000000000000000000000000000081525081526020016040518060400160405280600781526020017f233330413744370000000000000000000000000000000000000000000000000081525081526020016040518060400160405280600781526020017f234545443533350000000000000000000000000000000000000000000000000081525081526020016040518060400160405280600781526020017f234134414341460000000000000000000000000000000000000000000000000081525081525060119060056200037d92919062000640565b506040518060a001604052806040518060a001604052806068815260200162004a026068913981526020016040518060a001604052806063815260200162004084606391398152602001604051806080016040528060588152602001620045b46058913981526020016040518060a0016040528060668152602001620046ee6066913981526020016040518060800160405280605c815260200162004754605c913981525060129060056200043492919062000640565b506040518060a00160405280604051806102400160405280610216815260200162003e6e61021691398152602001604051806102800160405280610242815260200162004372610242913981526020016040518061026001604052806102228152602001620040e7610222913981526020016040518061022001604052806101fe815260200162004a6a6101fe913981526020016040518061028001604052806102528152602001620047b061025291398152506013906005620004fa92919062000640565b503480156200050857600080fd5b506040518060400160405280600b81526020017f506b59656c6c6f774e66740000000000000000000000000000000000000000008152506040518060400160405280600881526020017f504b59454c4c4f5700000000000000000000000000000000000000000000000081525081600090805190602001906200058d929190620005af565b508060019080519060200190620005a6929190620005af565b50505062000799565b828054620005bd9062000734565b90600052602060002090601f016020900481019282620005e157600085556200062d565b82601f10620005fc57805160ff19168380011785556200062d565b828001600101855582156200062d579182015b828111156200062c5782518255916020019190600101906200060f565b5b5090506200063c9190620006a7565b5090565b82805482825590600052602060002090810192821562000694579160200282015b828111156200069357825182908051906020019062000682929190620005af565b509160200191906001019062000661565b5b509050620006a39190620006c6565b5090565b5b80821115620006c2576000816000905550600101620006a8565b5090565b5b80821115620006ea5760008181620006e09190620006ee565b50600101620006c7565b5090565b508054620006fc9062000734565b6000825580601f1062000710575062000731565b601f016020900490600052602060002090810190620007309190620006a7565b5b50565b600060028204905060018216806200074d57607f821691505b602082108114156200076457620007636200076a565b5b50919050565b7f4e487b7100000000000000000000000000000000000000000000000000000000600052602260045260246000fd5b6136c580620007a96000396000f3fe608060405234801561001057600080fd5b506004361061010b5760003560e01c80636352211e116100a2578063a22cb46511610071578063a22cb465146102a6578063b88d4fde146102c2578063c87b56dd146102de578063e985e9c51461030e578063f0292a031461033e5761010b565b80636352211e1461020a57806370a082311461023a57806394fe82511461026a57806395d89b41146102885761010b565b80630aaef285116100de5780630aaef285146101aa57806323b872dd146101c857806342842e0e146101e457806360cc9283146102005761010b565b806301ffc9a71461011057806306fdde0314610140578063081812fc1461015e578063095ea7b31461018e575b600080fd5b61012a600480360381019061012591906121ed565b61035c565b60405161013791906128cf565b60405180910390f35b61014861043e565b60405161015591906128ea565b60405180910390f35b6101786004803603810190610173919061223f565b6104d0565b6040516101859190612868565b60405180910390f35b6101a860048036038101906101a391906121b1565b610555565b005b6101b261066d565b6040516101bf9190612b4c565b60405180910390f35b6101e260048036038101906101dd91906120ab565b610673565b005b6101fe60048036038101906101f991906120ab565b6106d3565b005b6102086106f3565b005b610224600480360381019061021f919061223f565b610a9a565b6040516102319190612868565b60405180910390f35b610254600480360381019061024f9190612046565b610b4c565b6040516102619190612b4c565b60405180910390f35b610272610c04565b60405161027f9190612b4c565b60405180910390f35b610290610c0a565b60405161029d91906128ea565b60405180910390f35b6102c060048036038101906102bb9190612175565b610c9c565b005b6102dc60048036038101906102d791906120fa565b610e1d565b005b6102f860048036038101906102f3919061223f565b610e7f565b60405161030591906128ea565b60405180910390f35b6103286004803603810190610323919061206f565b610fd1565b60405161033591906128cf565b60405180910390f35b610346611065565b6040516103539190612b4c565b60405180910390f35b60007f80ac58cd000000000000000000000000000000000000000000000000000000007bffffffffffffffffffffffffffffffffffffffffffffffffffffffff1916827bffffffffffffffffffffffffffffffffffffffffffffffffffffffff1916148061042757507f5b5e139f000000000000000000000000000000000000000000000000000000007bffffffffffffffffffffffffffffffffffffffffffffffffffffffff1916827bffffffffffffffffffffffffffffffffffffffffffffffffffffffff1916145b8061043757506104368261106b565b5b9050919050565b60606000805461044d90612de0565b80601f016020809104026020016040519081016040528092919081815260200182805461047990612de0565b80156104c65780601f1061049b576101008083540402835291602001916104c6565b820191906000526020600020905b8154815290600101906020018083116104a957829003601f168201915b5050505050905090565b60006104db826110d5565b61051a576040517f08c379a000000000000000000000000000000000000000000000000000000000815260040161051190612a6c565b60405180910390fd5b6004600083815260200190815260200160002060009054906101000a900473ffffffffffffffffffffffffffffffffffffffff169050919050565b600061056082610a9a565b90508073ffffffffffffffffffffffffffffffffffffffff168373ffffffffffffffffffffffffffffffffffffffff1614156105d1576040517f08c379a00000000000000000000000000000000000000000000000000000000081526004016105c890612acc565b60405180910390fd5b8073ffffffffffffffffffffffffffffffffffffffff166105f0611141565b73ffffffffffffffffffffffffffffffffffffffff16148061061f575061061e81610619611141565b610fd1565b5b61065e576040517f08c379a0000000000000000000000000000000000000000000000000000000008152600401610655906129ac565b60405180910390fd5b6106688383611149565b505050565b60095481565b61068461067e611141565b82611202565b6106c3576040517f08c379a00000000000000000000000000000000000000000000000000000000081526004016106ba90612b0c565b60405180910390fd5b6106ce8383836112e0565b505050565b6106ee83838360405180602001604052806000815250610e1d565b505050565b600954600860003373ffffffffffffffffffffffffffffffffffffffff1673ffffffffffffffffffffffffffffffffffffffff1681526020019081526020016000205410610776576040517f08c379a000000000000000000000000000000000000000000000000000000000815260040161076d90612aec565b60405180910390fd5b600a54600b54106107bc576040517f08c379a00000000000000000000000000000000000000000000000000000000081526004016107b390612b2c565b60405180910390fd5b60006107c8600761153c565b905060006107d58261154a565b90506000600c60118381548110610815577f4e487b7100000000000000000000000000000000000000000000000000000000600052603260045260246000fd5b90600052602060002001600d6010858154811061085b577f4e487b7100000000000000000000000000000000000000000000000000000000600052603260045260246000fd5b90600052602060002001600e601387815481106108a1577f4e487b7100000000000000000000000000000000000000000000000000000000600052603260045260246000fd5b90600052602060002001600f6040516020016108c39796959493929190612751565b6040516020818303038152906040529050600061099060108481548110610913577f4e487b7100000000000000000000000000000000000000000000000000000000600052603260045260246000fd5b9060005260206000200160128581548110610957577f4e487b7100000000000000000000000000000000000000000000000000000000600052603260045260246000fd5b9060005260206000200161096a8561159a565b60405160200161097c939291906127b6565b60405160208183030381529060405261159a565b90506000816040516020016109a59190612813565b60405160208183030381529060405290506001600860003373ffffffffffffffffffffffffffffffffffffffff1673ffffffffffffffffffffffffffffffffffffffff1681526020019081526020016000206000828254610a069190612c15565b925050819055506001600b6000828254610a209190612c15565b92505081905550610a313386611758565b610a3b8582611776565b610a4560076117ea565b3373ffffffffffffffffffffffffffffffffffffffff167f52277f0b4a9b555c5aa96900a13546f972bda413737ec164aac947c87eec602486604051610a8b9190612b4c565b60405180910390a25050505050565b6000806002600084815260200190815260200160002060009054906101000a900473ffffffffffffffffffffffffffffffffffffffff169050600073ffffffffffffffffffffffffffffffffffffffff168173ffffffffffffffffffffffffffffffffffffffff161415610b43576040517f08c379a0000000000000000000000000000000000000000000000000000000008152600401610b3a906129ec565b60405180910390fd5b80915050919050565b60008073ffffffffffffffffffffffffffffffffffffffff168273ffffffffffffffffffffffffffffffffffffffff161415610bbd576040517f08c379a0000000000000000000000000000000000000000000000000000000008152600401610bb4906129cc565b60405180910390fd5b600360008373ffffffffffffffffffffffffffffffffffffffff1673ffffffffffffffffffffffffffffffffffffffff168152602001908152602001600020549050919050565b600b5481565b606060018054610c1990612de0565b80601f0160208091040260200160405190810160405280929190818152602001828054610c4590612de0565b8015610c925780601f10610c6757610100808354040283529160200191610c92565b820191906000526020600020905b815481529060010190602001808311610c7557829003601f168201915b5050505050905090565b610ca4611141565b73ffffffffffffffffffffffffffffffffffffffff168273ffffffffffffffffffffffffffffffffffffffff161415610d12576040517f08c379a0000000000000000000000000000000000000000000000000000000008152600401610d099061296c565b60405180910390fd5b8060056000610d1f611141565b73ffffffffffffffffffffffffffffffffffffffff1673ffffffffffffffffffffffffffffffffffffffff16815260200190815260200160002060008473ffffffffffffffffffffffffffffffffffffffff1673ffffffffffffffffffffffffffffffffffffffff16815260200190815260200160002060006101000a81548160ff0219169083151502179055508173ffffffffffffffffffffffffffffffffffffffff16610dcc611141565b73ffffffffffffffffffffffffffffffffffffffff167f17307eab39ab6107e8899845ad3d59bd9653f200f220920489ca2b5937696c3183604051610e1191906128cf565b60405180910390a35050565b610e2e610e28611141565b83611202565b610e6d576040517f08c379a0000000000000000000000000000000000000000000000000000000008152600401610e6490612b0c565b60405180910390fd5b610e7984848484611800565b50505050565b6060610e8a826110d5565b610ec9576040517f08c379a0000000000000000000000000000000000000000000000000000000008152600401610ec090612a4c565b60405180910390fd5b6000600660008481526020019081526020016000208054610ee990612de0565b80601f0160208091040260200160405190810160405280929190818152602001828054610f1590612de0565b8015610f625780601f10610f3757610100808354040283529160200191610f62565b820191906000526020600020905b815481529060010190602001808311610f4557829003601f168201915b505050505090506000610f7361185c565b9050600081511415610f89578192505050610fcc565b600082511115610fbe578082604051602001610fa692919061272d565b60405160208183030381529060405292505050610fcc565b610fc784611873565b925050505b919050565b6000600560008473ffffffffffffffffffffffffffffffffffffffff1673ffffffffffffffffffffffffffffffffffffffff16815260200190815260200160002060008373ffffffffffffffffffffffffffffffffffffffff1673ffffffffffffffffffffffffffffffffffffffff16815260200190815260200160002060009054906101000a900460ff16905092915050565b600a5481565b60007f01ffc9a7000000000000000000000000000000000000000000000000000000007bffffffffffffffffffffffffffffffffffffffffffffffffffffffff1916827bffffffffffffffffffffffffffffffffffffffffffffffffffffffff1916149050919050565b60008073ffffffffffffffffffffffffffffffffffffffff166002600084815260200190815260200160002060009054906101000a900473ffffffffffffffffffffffffffffffffffffffff1673ffffffffffffffffffffffffffffffffffffffff1614159050919050565b600033905090565b816004600083815260200190815260200160002060006101000a81548173ffffffffffffffffffffffffffffffffffffffff021916908373ffffffffffffffffffffffffffffffffffffffff160217905550808273ffffffffffffffffffffffffffffffffffffffff166111bc83610a9a565b73ffffffffffffffffffffffffffffffffffffffff167f8c5be1e5ebec7d5bd14f71427d1e84f3dd0314c0f7b2291e5b200ac8c7c3b92560405160405180910390a45050565b600061120d826110d5565b61124c576040517f08c379a00000000000000000000000000000000000000000000000000000000081526004016112439061298c565b60405180910390fd5b600061125783610a9a565b90508073ffffffffffffffffffffffffffffffffffffffff168473ffffffffffffffffffffffffffffffffffffffff1614806112c657508373ffffffffffffffffffffffffffffffffffffffff166112ae846104d0565b73ffffffffffffffffffffffffffffffffffffffff16145b806112d757506112d68185610fd1565b5b91505092915050565b8273ffffffffffffffffffffffffffffffffffffffff1661130082610a9a565b73ffffffffffffffffffffffffffffffffffffffff1614611356576040517f08c379a000000000000000000000000000000000000000000000000000000000815260040161134d90612a8c565b60405180910390fd5b600073ffffffffffffffffffffffffffffffffffffffff168273ffffffffffffffffffffffffffffffffffffffff1614156113c6576040517f08c379a00000000000000000000000000000000000000000000000000000000081526004016113bd9061294c565b60405180910390fd5b6113d183838361191a565b6113dc600082611149565b6001600360008573ffffffffffffffffffffffffffffffffffffffff1673ffffffffffffffffffffffffffffffffffffffff168152602001908152602001600020600082825461142c9190612cf6565b925050819055506001600360008473ffffffffffffffffffffffffffffffffffffffff1673ffffffffffffffffffffffffffffffffffffffff16815260200190815260200160002060008282546114839190612c15565b92505081905550816002600083815260200190815260200160002060006101000a81548173ffffffffffffffffffffffffffffffffffffffff021916908373ffffffffffffffffffffffffffffffffffffffff160217905550808273ffffffffffffffffffffffffffffffffffffffff168473ffffffffffffffffffffffffffffffffffffffff167fddf252ad1be2c89b69c2b068fc378daa952ba7f163c4a11628f55a4df523b3ef60405160405180910390a4505050565b600081600001549050919050565b60008061157f3361155a8561191f565b60405160200161156b929190612835565b604051602081830303815290604052611acc565b9050601080549050816115929190612eb0565b915050919050565b606060008251905060008114156115c35760405180602001604052806000815250915050611753565b600060036002836115d49190612c15565b6115de9190612c6b565b60046115ea9190612c9c565b905060006020826115fb9190612c15565b67ffffffffffffffff81111561163a577f4e487b7100000000000000000000000000000000000000000000000000000000600052604160045260246000fd5b6040519080825280601f01601f19166020018201604052801561166c5781602001600182028036833780820191505090505b5090506000604051806060016040528060408152602001613650604091399050600181016020830160005b868110156117105760038101905062ffffff818a015116603f8160121c168401518060081b905060ff603f83600c1c1686015116810190508060081b905060ff603f8360061c1686015116810190508060081b905060ff603f831686015116810190508060e01b90508084526004840193505050611697565b50600386066001811461172a576002811461173a57611745565b613d3d60f01b6002830352611745565b603d60f81b60018303525b508484525050819450505050505b919050565b611772828260405180602001604052806000815250611aff565b5050565b61177f826110d5565b6117be576040517f08c379a00000000000000000000000000000000000000000000000000000000081526004016117b590612a0c565b60405180910390fd5b806006600084815260200190815260200160002090805190602001906117e5929190611ed2565b505050565b6001816000016000828254019250508190555050565b61180b8484846112e0565b61181784848484611b5a565b611856576040517f08c379a000000000000000000000000000000000000000000000000000000000815260040161184d9061290c565b60405180910390fd5b50505050565b606060405180602001604052806000815250905090565b606061187e826110d5565b6118bd576040517f08c379a00000000000000000000000000000000000000000000000000000000081526004016118b490612aac565b60405180910390fd5b60006118c761185c565b905060008151116118e75760405180602001604052806000815250611912565b806118f18461191f565b60405160200161190292919061272d565b6040516020818303038152906040525b915050919050565b505050565b60606000821415611967576040518060400160405280600181526020017f30000000000000000000000000000000000000000000000000000000000000008152509050611ac7565b600082905060005b6000821461199957808061198290612e43565b915050600a826119929190612c6b565b915061196f565b60008167ffffffffffffffff8111156119db577f4e487b7100000000000000000000000000000000000000000000000000000000600052604160045260246000fd5b6040519080825280601f01601f191660200182016040528015611a0d5781602001600182028036833780820191505090505b5090505b60008514611ac057600182611a269190612cf6565b9150600a85611a359190612eb0565b6030611a419190612c15565b60f81b818381518110611a7d577f4e487b7100000000000000000000000000000000000000000000000000000000600052603260045260246000fd5b60200101907effffffffffffffffffffffffffffffffffffffffffffffffffffffffffffff1916908160001a905350600a85611ab99190612c6b565b9450611a11565b8093505050505b919050565b600081604051602001611adf9190612716565b6040516020818303038152906040528051906020012060001c9050919050565b611b098383611cf1565b611b166000848484611b5a565b611b55576040517f08c379a0000000000000000000000000000000000000000000000000000000008152600401611b4c9061290c565b60405180910390fd5b505050565b6000611b7b8473ffffffffffffffffffffffffffffffffffffffff16611ebf565b15611ce4578373ffffffffffffffffffffffffffffffffffffffff1663150b7a02611ba4611141565b8786866040518563ffffffff1660e01b8152600401611bc69493929190612883565b602060405180830381600087803b158015611be057600080fd5b505af1925050508015611c1157506040513d601f19601f82011682018060405250810190611c0e9190612216565b60015b611c94573d8060008114611c41576040519150601f19603f3d011682016040523d82523d6000602084013e611c46565b606091505b50600081511415611c8c576040517f08c379a0000000000000000000000000000000000000000000000000000000008152600401611c839061290c565b60405180910390fd5b805181602001fd5b63150b7a0260e01b7bffffffffffffffffffffffffffffffffffffffffffffffffffffffff1916817bffffffffffffffffffffffffffffffffffffffffffffffffffffffff191614915050611ce9565b600190505b949350505050565b600073ffffffffffffffffffffffffffffffffffffffff168273ffffffffffffffffffffffffffffffffffffffff161415611d61576040517f08c379a0000000000000000000000000000000000000000000000000000000008152600401611d5890612a2c565b60405180910390fd5b611d6a816110d5565b15611daa576040517f08c379a0000000000000000000000000000000000000000000000000000000008152600401611da19061292c565b60405180910390fd5b611db66000838361191a565b6001600360008473ffffffffffffffffffffffffffffffffffffffff1673ffffffffffffffffffffffffffffffffffffffff1681526020019081526020016000206000828254611e069190612c15565b92505081905550816002600083815260200190815260200160002060006101000a81548173ffffffffffffffffffffffffffffffffffffffff021916908373ffffffffffffffffffffffffffffffffffffffff160217905550808273ffffffffffffffffffffffffffffffffffffffff16600073ffffffffffffffffffffffffffffffffffffffff167fddf252ad1be2c89b69c2b068fc378daa952ba7f163c4a11628f55a4df523b3ef60405160405180910390a45050565b600080823b905060008111915050919050565b828054611ede90612de0565b90600052602060002090601f016020900481019282611f005760008555611f47565b82601f10611f1957805160ff1916838001178555611f47565b82800160010185558215611f47579182015b82811115611f46578251825591602001919060010190611f2b565b5b509050611f549190611f58565b5090565b5b80821115611f71576000816000905550600101611f59565b5090565b6000611f88611f8384612b8c565b612b67565b905082815260208101848484011115611fa057600080fd5b611fab848285612d9e565b509392505050565b600081359050611fc2816135f3565b92915050565b600081359050611fd78161360a565b92915050565b600081359050611fec81613621565b92915050565b60008151905061200181613621565b92915050565b600082601f83011261201857600080fd5b8135612028848260208601611f75565b91505092915050565b60008135905061204081613638565b92915050565b60006020828403121561205857600080fd5b600061206684828501611fb3565b91505092915050565b6000806040838503121561208257600080fd5b600061209085828601611fb3565b92505060206120a185828601611fb3565b9150509250929050565b6000806000606084860312156120c057600080fd5b60006120ce86828701611fb3565b93505060206120df86828701611fb3565b92505060406120f086828701612031565b9150509250925092565b6000806000806080858703121561211057600080fd5b600061211e87828801611fb3565b945050602061212f87828801611fb3565b935050604061214087828801612031565b925050606085013567ffffffffffffffff81111561215d57600080fd5b61216987828801612007565b91505092959194509250565b6000806040838503121561218857600080fd5b600061219685828601611fb3565b92505060206121a785828601611fc8565b9150509250929050565b600080604083850312156121c457600080fd5b60006121d285828601611fb3565b92505060206121e385828601612031565b9150509250929050565b6000602082840312156121ff57600080fd5b600061220d84828501611fdd565b91505092915050565b60006020828403121561222857600080fd5b600061223684828501611ff2565b91505092915050565b60006020828403121561225157600080fd5b600061225f84828501612031565b91505092915050565b61227181612d2a565b82525050565b61228861228382612d2a565b612e8c565b82525050565b61229781612d3c565b82525050565b60006122a882612bd2565b6122b28185612be8565b93506122c2818560208601612dad565b6122cb81612f9d565b840191505092915050565b60006122e182612bdd565b6122eb8185612bf9565b93506122fb818560208601612dad565b61230481612f9d565b840191505092915050565b600061231a82612bdd565b6123248185612c0a565b9350612334818560208601612dad565b80840191505092915050565b6000815461234d81612de0565b6123578186612c0a565b945060018216600081146123725760018114612383576123b6565b60ff198316865281860193506123b6565b61238c85612bbd565b60005b838110156123ae5781548189015260018201915060208101905061238f565b838801955050505b50505092915050565b60006123cc601383612c0a565b91506123d782612fbb565b601382019050919050565b60006123ef603283612bf9565b91506123fa82612fe4565b604082019050919050565b6000612412601c83612bf9565b915061241d82613033565b602082019050919050565b6000612435602483612bf9565b91506124408261305c565b604082019050919050565b6000612458601983612bf9565b9150612463826130ab565b602082019050919050565b600061247b602c83612bf9565b9150612486826130d4565b604082019050919050565b600061249e603883612bf9565b91506124a982613123565b604082019050919050565b60006124c1602a83612bf9565b91506124cc82613172565b604082019050919050565b60006124e4602983612bf9565b91506124ef826131c1565b604082019050919050565b6000612507602e83612bf9565b915061251282613210565b604082019050919050565b600061252a600283612c0a565b91506125358261325f565b600282019050919050565b600061254d602083612bf9565b915061255882613288565b602082019050919050565b6000612570603183612bf9565b915061257b826132b1565b604082019050919050565b6000612593602c83612bf9565b915061259e82613300565b604082019050919050565b60006125b6602983612bf9565b91506125c18261334f565b604082019050919050565b60006125d9602f83612bf9565b91506125e48261339e565b604082019050919050565b60006125fc602783612c0a565b9150612607826133ed565b602782019050919050565b600061261f600a83612c0a565b915061262a8261343c565b600a82019050919050565b6000612642602183612bf9565b915061264d82613465565b604082019050919050565b6000612665602483612bf9565b9150612670826134b4565b604082019050919050565b6000612688601d83612c0a565b915061269382613503565b601d82019050919050565b60006126ab600783612c0a565b91506126b68261352c565b600782019050919050565b60006126ce603183612bf9565b91506126d982613555565b604082019050919050565b60006126f1602383612bf9565b91506126fc826135a4565b604082019050919050565b61271081612d94565b82525050565b6000612722828461230f565b915081905092915050565b6000612739828561230f565b9150612745828461230f565b91508190509392505050565b600061275d828a612340565b91506127698289612340565b91506127758288612340565b91506127818287612340565b915061278d8286612340565b91506127998285612340565b91506127a58284612340565b915081905098975050505050505050565b60006127c182612612565b91506127cd8286612340565b91506127d8826123bf565b91506127e48285612340565b91506127ef826125ef565b91506127fb828461230f565b91506128068261251d565b9150819050949350505050565b600061281e8261267b565b915061282a828461230f565b915081905092915050565b60006128408261269e565b915061284c8285612277565b60148201915061285c828461230f565b91508190509392505050565b600060208201905061287d6000830184612268565b92915050565b60006080820190506128986000830187612268565b6128a56020830186612268565b6128b26040830185612707565b81810360608301526128c4818461229d565b905095945050505050565b60006020820190506128e4600083018461228e565b92915050565b6000602082019050818103600083015261290481846122d6565b905092915050565b60006020820190508181036000830152612925816123e2565b9050919050565b6000602082019050818103600083015261294581612405565b9050919050565b6000602082019050818103600083015261296581612428565b9050919050565b600060208201905081810360008301526129858161244b565b9050919050565b600060208201905081810360008301526129a58161246e565b9050919050565b600060208201905081810360008301526129c581612491565b9050919050565b600060208201905081810360008301526129e5816124b4565b9050919050565b60006020820190508181036000830152612a05816124d7565b9050919050565b60006020820190508181036000830152612a25816124fa565b9050919050565b60006020820190508181036000830152612a4581612540565b9050919050565b60006020820190508181036000830152612a6581612563565b9050919050565b60006020820190508181036000830152612a8581612586565b9050919050565b60006020820190508181036000830152612aa5816125a9565b9050919050565b60006020820190508181036000830152612ac5816125cc565b9050919050565b60006020820190508181036000830152612ae581612635565b9050919050565b60006020820190508181036000830152612b0581612658565b9050919050565b60006020820190508181036000830152612b25816126c1565b9050919050565b60006020820190508181036000830152612b45816126e4565b9050919050565b6000602082019050612b616000830184612707565b92915050565b6000612b71612b82565b9050612b7d8282612e12565b919050565b6000604051905090565b600067ffffffffffffffff821115612ba757612ba6612f6e565b5b612bb082612f9d565b9050602081019050919050565b60008190508160005260206000209050919050565b600081519050919050565b600081519050919050565b600082825260208201905092915050565b600082825260208201905092915050565b600081905092915050565b6000612c2082612d94565b9150612c2b83612d94565b9250827fffffffffffffffffffffffffffffffffffffffffffffffffffffffffffffffff03821115612c6057612c5f612ee1565b5b828201905092915050565b6000612c7682612d94565b9150612c8183612d94565b925082612c9157612c90612f10565b5b828204905092915050565b6000612ca782612d94565b9150612cb283612d94565b9250817fffffffffffffffffffffffffffffffffffffffffffffffffffffffffffffffff0483118215151615612ceb57612cea612ee1565b5b828202905092915050565b6000612d0182612d94565b9150612d0c83612d94565b925082821015612d1f57612d1e612ee1565b5b828203905092915050565b6000612d3582612d74565b9050919050565b60008115159050919050565b60007fffffffff0000000000000000000000000000000000000000000000000000000082169050919050565b600073ffffffffffffffffffffffffffffffffffffffff82169050919050565b6000819050919050565b82818337600083830152505050565b60005b83811015612dcb578082015181840152602081019050612db0565b83811115612dda576000848401525b50505050565b60006002820490506001821680612df857607f821691505b60208210811415612e0c57612e0b612f3f565b5b50919050565b612e1b82612f9d565b810181811067ffffffffffffffff82111715612e3a57612e39612f6e565b5b80604052505050565b6000612e4e82612d94565b91507fffffffffffffffffffffffffffffffffffffffffffffffffffffffffffffffff821415612e8157612e80612ee1565b5b600182019050919050565b6000612e9782612e9e565b9050919050565b6000612ea982612fae565b9050919050565b6000612ebb82612d94565b9150612ec683612d94565b925082612ed657612ed5612f10565b5b828206905092915050565b7f4e487b7100000000000000000000000000000000000000000000000000000000600052601160045260246000fd5b7f4e487b7100000000000000000000000000000000000000000000000000000000600052601260045260246000fd5b7f4e487b7100000000000000000000000000000000000000000000000000000000600052602260045260246000fd5b7f4e487b7100000000000000000000000000000000000000000000000000000000600052604160045260246000fd5b6000601f19601f8301169050919050565b60008160601b9050919050565b7f222c20226465736372697074696f6e223a202200000000000000000000000000600082015250565b7f4552433732313a207472616e7366657220746f206e6f6e20455243373231526560008201527f63656976657220696d706c656d656e7465720000000000000000000000000000602082015250565b7f4552433732313a20746f6b656e20616c7265616479206d696e74656400000000600082015250565b7f4552433732313a207472616e7366657220746f20746865207a65726f2061646460008201527f7265737300000000000000000000000000000000000000000000000000000000602082015250565b7f4552433732313a20617070726f766520746f2063616c6c657200000000000000600082015250565b7f4552433732313a206f70657261746f7220717565727920666f72206e6f6e657860008201527f697374656e7420746f6b656e0000000000000000000000000000000000000000602082015250565b7f4552433732313a20617070726f76652063616c6c6572206973206e6f74206f7760008201527f6e6572206e6f7220617070726f76656420666f7220616c6c0000000000000000602082015250565b7f4552433732313a2062616c616e636520717565727920666f7220746865207a6560008201527f726f206164647265737300000000000000000000000000000000000000000000602082015250565b7f4552433732313a206f776e657220717565727920666f72206e6f6e657869737460008201527f656e7420746f6b656e0000000000000000000000000000000000000000000000602082015250565b7f45524337323155524953746f726167653a2055524920736574206f66206e6f6e60008201527f6578697374656e7420746f6b656e000000000000000000000000000000000000602082015250565b7f227d000000000000000000000000000000000000000000000000000000000000600082015250565b7f4552433732313a206d696e7420746f20746865207a65726f2061646472657373600082015250565b7f45524337323155524953746f726167653a2055524920717565727920666f722060008201527f6e6f6e6578697374656e7420746f6b656e000000000000000000000000000000602082015250565b7f4552433732313a20617070726f76656420717565727920666f72206e6f6e657860008201527f697374656e7420746f6b656e0000000000000000000000000000000000000000602082015250565b7f4552433732313a207472616e73666572206f6620746f6b656e2074686174206960008201527f73206e6f74206f776e0000000000000000000000000000000000000000000000602082015250565b7f4552433732314d657461646174613a2055524920717565727920666f72206e6f60008201527f6e6578697374656e7420746f6b656e0000000000000000000000000000000000602082015250565b7f222c2022696d616765223a2022646174613a696d6167652f7376672b786d6c3b60008201527f6261736536342c00000000000000000000000000000000000000000000000000602082015250565b7f7b226e616d65223a202200000000000000000000000000000000000000000000600082015250565b7f4552433732313a20617070726f76616c20746f2063757272656e74206f776e6560008201527f7200000000000000000000000000000000000000000000000000000000000000602082015250565b7f596f752068617665207265616368656420796f7572206d696e74696e67206c6960008201527f6d69742e00000000000000000000000000000000000000000000000000000000602082015250565b7f646174613a6170706c69636174696f6e2f6a736f6e3b6261736536342c000000600082015250565b7f5354415254455200000000000000000000000000000000000000000000000000600082015250565b7f4552433732313a207472616e736665722063616c6c6572206973206e6f74206f60008201527f776e6572206e6f7220617070726f766564000000000000000000000000000000602082015250565b7f546865726520617265206e6f206d6f7265204e46547320666f72206d696e746960008201527f6e672e0000000000000000000000000000000000000000000000000000000000602082015250565b6135fc81612d2a565b811461360757600080fd5b50565b61361381612d3c565b811461361e57600080fd5b50565b61362a81612d48565b811461363557600080fd5b50565b61364181612d94565b811461364c57600080fd5b5056fe4142434445464748494a4b4c4d4e4f505152535455565758595a6162636465666768696a6b6c6d6e6f707172737475767778797a303132333435363738392b2fa264697066735822122028a568f1ec9f23bbc92052714f2937fa14e430c452b7e3703933fd07e5df496d64736f6c63430008040033646174613a696d6167652f706e673b6261736536342c6956424f5277304b47676f414141414e5355684555674141414367414141416f41674d41414144786b46442b414141414446424d5645574d2f31722f2f2f385a47526b49745447375847574c414141424c556c45515651596c574d4968514d4743706852572b484d2f4e55775a6c6a2f2f716c51356776372f5538687a4c6a462f2f662f676a43542b2f2b742f3330567a507a332f39583656302f427a4c35567131617657676c69567530574451313464522f45544f463159474351644149784377347738444d77384947593854774739676365574638464d694f6162657a5064667965436d5247365a7a6874356251427a486a36686b4f36457659673568465a51774d32322f77673567702f7751592f702f674270764c6f4d5441774d41465a6c6f64654c576177513573786674582f3138643041475a473766382f2f397661777841326d72572f2f2f2f613050445669427a45392b715661734f4d6677454d682b73415272776875466b4b454f5941764f715665735a6a412b426d422b732f2f2b775a2f6f455a503734772f662f7a582b6d663043314f327a342f6a2f3477772f53746f34427947537766676c6b5a6a566f726c724438476f706b446e7a31613351736e4e70494e75716c72304e6a55746243773653534742347a55514e6451416d7961334d716a37414d6741414141424a52553545726b4a6767673d3d497420686173206120707265666572656e636520666f7220686f74207468696e67732e205768656e206974207261696e732c20737465616d206973207361696420746f2073706f75742066726f6d2074686520746970206f6620697473207461696c2e646174613a696d6167652f706e673b6261736536342c6956424f5277304b47676f414141414e5355684555674141414367414141416f41674d41414144786b46442b414141414446424d56455745317638416a502f2f2f2f385a47526e6148722f57414141424e6b6c45515651596c574e594251634d524443582f3738465931356734495579567a4d774d4c79434d4e63416d564951356849673077724337475267764341475963356d59507369423246755a2b4437457764687a6d666776514e6c756a4b7735385a6e675a6972447a4177667638444d6f316853346b4c41342b4e4c596735775a6968566b526d4b6c414677787265757777464c4b314171786d5773463567504f6938464353366b7648342f344f4f696c45674535676247417759736e2b427a4432386749475834534649644e58575651337344716c68494f61362b762b337733586a774d7a5671316256746f4b5a363165765773307a46637863396e4c56757236746453446d796c315a7539716d58357566426651784d42775965614d4f57414646587a67742f3336346d6f455036474d4441573357433238593249446849477641776c6767774d414f5a4c4a2b6b57476f443542684253706772502f4455427269434653376b6a467544554e7336415578554a68567257474971772b74416f722b7a317243454c634b5a41555172486173676b6641584c5334414143304838324c74712f44707741414141424a52553545726b4a6767673d3d22207374726f6b652d77696474683d22333022202f3e3c7465787420783d223530252220793d223735252220636c6173733d22626173652220646f6d696e616e742d626173656c696e653d226d6964646c652220746578742d616e63686f723d226d6964646c65223e646174613a696d6167652f706e673b6261736536342c6956424f5277304b47676f414141414e5355684555674141414367414141416f41674d41414144786b46442b414141414446424d5645582f4141442f2f2f385a47526e2f6a41437a564674784141414254306c45515651596c545851763076445542414838434f672b41504a6c4d576c56516d554c6b36644c4d30714c6931704c684771324d3146645041504b416a4f7753453453756d6958646f2f51444256696e556f6e647864416d362b787157465a3839376a2f53477834666a792b50754150476f6a626f41505564474757766b4a426b62386d3265735571325a4a77796932463777627847384d7455554e30596f553430496b757a73664649784c2f466e31446266676f314c66433633513448416d45424676494647754b5a4b4148752f6278533475624543726a3746464d53506f6778564875304f666b3263723844754e7a353634555463553844714d64707861524651465077524765554936486f793249706f48576b4d57422f43774e705935502f6264714949734a6e6e74666c73644c6f634b485735466c6f315a6b796b646e364d75654b48476a4e7a4f47794f7a4f544c4e75614f52477a506b5355554e4633344e74514f6c5738476a446c72614c7a675948654766416c526f2b6b706d4e594a785272586b41764657417072686e7554646c51527a32574276714f356e6e6651432f4e4b3772644e767276427a71727972364c6c6e52332b666b486a36472b477a5576384e7341414141415355564f524b35435949493d5768656e20697420726574726163747320697473206c6f6e67206e65636b20696e746f20697473207368656c6c2c2069742073717569727473206f75742077617465722077697468207669676f726f757320666f7263652e3c73766720786d6c6e733d22687474703a2f2f7777772e77332e6f72672f323030302f73766722207072657365727665417370656374526174696f3d22784d696e594d696e206d656574222076696577426f783d223020302033353020333530223e3c7374796c653e2e62617365207b2066696c6c3a20626c61636b3b20666f6e742d66616d696c793a2073657269663b20666f6e742d73697a653a20313470783b207d3c2f7374796c653e3c726563742077696474683d223130302522206865696768743d2231303025222066696c6c3d22776869746522207374726f6b653d2250696b6163687520746861742063616e2067656e657261746520706f77657266756c20656c656374726963697479206861766520636865656b207361637320746861742061726520657874726120736f667420616e642073757065722073747265746368792e49742068617320746865206162696c69747920746f20616c7465722074686520636f6d706f736974696f6e206f662069747320626f647920746f20737569742069747320737572726f756e64696e6720656e7669726f6e6d656e742e646174613a696d6167652f706e673b6261736536342c6956424f5277304b47676f414141414e5355684555674141414367414141416f41674d41414144786b46442b414141414446424d5645566157696e2f2f2f385a47526d6c76564a5953366e504141414257306c45515651596c5558527355744363524148384f75426f43304f3861626154416a62616f316e693050676b7672567a4d4c4b624b326c4c56494d6d774b6e4830464c56676a796f4b577453544d45793647705079424543426f555179683464743354794e2f3034666a4333652b4f38502f494f2b623948395956476670516b544e467162636850563146516350576d6e554e53726a74524d475841345539537049393077574b66745342684b2f734255556137564d564e49734b684c75767a3663464d79637473505443316e505a465244754d2f4d506c6261464957612f4e596c645961526a7458713332424e477033696d42775355634a6f7668436f6767586b32613443654a6f51395046644446464a4e634f47786968525770636f57543644794770657364644e3152646c6d794d316b4a4c6a2f54516873455632654d417631412f4d7132526c5374626b66457a34517a76584d494e5a6972685038436f4e596b396c4c434737694b4f6c6b64684232446e47386b574e5a43517748656f5a6d6b55366f7a475961525932634d6e716c79566c4e6f37787738623263396447562f666c554b5634745a5a584e6b4235662f694f776f75567a2b6f6870545a2f44694b486936437a6a592f304334562b343069456375367741414141415355564f524b35435949493d5468657265206973206120706c616e742073656564206f6e20697473206261636b2072696768742066726f6d2074686520646179207468697320506f6b656d6f6e20697320626f726e2e20546865207365656420736c6f776c792067726f7773206c61726765722e646174613a696d6167652f706e673b6261736536342c6956424f5277304b47676f414141414e5355684555674141414367414141416f41674d41414144786b46442b414141414446424d5645586d6377442f2f2f385a47526e2f2f7742424e354c624141414248456c4551565159475158424957745755526741344c63736d43773777626867554c4335487a446348536f59507539357a7432396e2b41564f514d6e4b74713044495246343945734b7a4b7a4e71506748376a3741634b364273456938336e69466f43346d7742692b6767513939384352476b4e386d6d4b33437279795a7355747664666e643438385550344e69533959557434736344527362446578744666516c375148784d4b46484c4945314e6d43763142632f416865523747772b61774e562f44616d4b53796c6e595453585a3664596c7a4275492b71794565574e7a553951764a65796d523366733743306c6a4f437a456e6f5962736768512b367351752f6850384d564e59794750377a5877716870557174686c5a4b553974545174533572543652517a327370792b4d7a6f5836764a53395066777631645a6658356e4f68506d6a656d53384a485a69764369767773776b6a7545596f4d4453434e6c777342634739583348354a594b3235585a426344334a6e2f41666a78655234652b6a4b354d41414141415355564f524b35435949493d22206865696768743d22313030222077696474683d2231303022207472616e73666f726d3d227472616e736c617465283132352c31323529222f3e3c2f7376673e",
	"linkReferences": {},
	"deployedLinkReferences": {}
}