{
	"_format": "hh-sol-artifact-1",
	"contractName": "PkYellowNft",
	"sourceName": "contracts/PkYellowNft.sol",
	"abi": [
		{
			"inputs": [],
			"stateMutability": "nonpayable",
			"type": "constructor"
		},
		{
			"anonymous": false,
			"inputs": [
				{
					"indexed": true,
					"internalType": "address",
					"name": "owner",
					"type": "address"
				},
				{
					"indexed": true,
					"internalType": "address",
					"name": "approved",
					"type": "address"
				},
				{
					"indexed": true,
					"internalType": "uint256",
					"name": "tokenId",
					"type": "uint256"
				}
			],
			"name": "Approval",
			"type": "event"
		},
		{
			"anonymous": false,
			"inputs": [
				{
					"indexed": true,
					"internalType": "address",
					"name": "owner",
					"type": "address"
				},
				{
					"indexed": true,
					"internalType": "address",
					"name": "operator",
					"type": "address"
				},
				{
					"indexed": false,
					"internalType": "bool",
					"name": "approved",
					"type": "bool"
				}
			],
			"name": "ApprovalForAll",
			"type": "event"
		},
		{
			"anonymous": false,
			"inputs": [
				{
					"indexed": true,
					"internalType": "address",
					"name": "from",
					"type": "address"
				},
				{
					"indexed": false,
					"internalType": "uint256",
					"name": "tokenId",
					"type": "uint256"
				}
			],
			"name": "NewMint",
			"type": "event"
		},
		{
			"anonymous": false,
			"inputs": [
				{
					"indexed": true,
					"internalType": "address",
					"name": "from",
					"type": "address"
				},
				{
					"indexed": true,
					"internalType": "address",
					"name": "to",
					"type": "address"
				},
				{
					"indexed": true,
					"internalType": "uint256",
					"name": "tokenId",
					"type": "uint256"
				}
			],
			"name": "Transfer",
			"type": "event"
		},
		{
			"inputs": [],
			"name": "MAX_MINT",
			"outputs": [
				{
					"internalType": "uint256",
					"name": "",
					"type": "uint256"
				}
			],
			"stateMutability": "view",
			"type": "function"
		},
		{
			"inputs": [],
			"name": "MAX_PER_ADDRESS",
			"outputs": [
				{
					"internalType": "uint256",
					"name": "",
					"type": "uint256"
				}
			],
			"stateMutability": "view",
			"type": "function"
		},
		{
			"inputs": [
				{
					"internalType": "address",
					"name": "to",
					"type": "address"
				},
				{
					"internalType": "uint256",
					"name": "tokenId",
					"type": "uint256"
				}
			],
			"name": "approve",
			"outputs": [],
			"stateMutability": "nonpayable",
			"type": "function"
		},
		{
			"inputs": [
				{
					"internalType": "address",
					"name": "owner",
					"type": "address"
				}
			],
			"name": "balanceOf",
			"outputs": [
				{
					"internalType": "uint256",
					"name": "",
					"type": "uint256"
				}
			],
			"stateMutability": "view",
			"type": "function"
		},
		{
			"inputs": [
				{
					"internalType": "uint256",
					"name": "tokenId",
					"type": "uint256"
				}
			],
			"name": "getApproved",
			"outputs": [
				{
					"internalType": "address",
					"name": "",
					"type": "address"
				}
			],
			"stateMutability": "view",
			"type": "function"
		},
		{
			"inputs": [
				{
					"internalType": "address",
					"name": "owner",
					"type": "address"
				},
				{
					"internalType": "address",
					"name": "operator",
					"type": "address"
				}
			],
			"name": "isApprovedForAll",
			"outputs": [
				{
					"internalType": "bool",
					"name": "",
					"type": "bool"
				}
			],
			"stateMutability": "view",
			"type": "function"
		},
		{
			"inputs": [],
			"name": "mintPokemon",
			"outputs": [],
			"stateMutability": "nonpayable",
			"type": "function"
		},
		{
			"inputs": [],
			"name": "name",
			"outputs": [
				{
					"internalType": "string",
					"name": "",
					"type": "string"
				}
			],
			"stateMutability": "view",
			"type": "function"
		},
		{
			"inputs": [
				{
					"internalType": "uint256",
					"name": "tokenId",
					"type": "uint256"
				}
			],
			"name": "ownerOf",
			"outputs": [
				{
					"internalType": "address",
					"name": "",
					"type": "address"
				}
			],
			"stateMutability": "view",
			"type": "function"
		},
		{
			"inputs": [],
			"name": "publicIssued",
			"outputs": [
				{
					"internalType": "uint256",
					"name": "",
					"type": "uint256"
				}
			],
			"stateMutability": "view",
			"type": "function"
		},
		{
			"inputs": [
				{
					"internalType": "address",
					"name": "from",
					"type": "address"
				},
				{
					"internalType": "address",
					"name": "to",
					"type": "address"
				},
				{
					"internalType": "uint256",
					"name": "tokenId",
					"type": "uint256"
				}
			],
			"name": "safeTransferFrom",
			"outputs": [],
			"stateMutability": "nonpayable",
			"type": "function"
		},
		{
			"inputs": [
				{
					"internalType": "address",
					"name": "from",
					"type": "address"
				},
				{
					"internalType": "address",
					"name": "to",
					"type": "address"
				},
				{
					"internalType": "uint256",
					"name": "tokenId",
					"type": "uint256"
				},
				{
					"internalType": "bytes",
					"name": "_data",
					"type": "bytes"
				}
			],
			"name": "safeTransferFrom",
			"outputs": [],
			"stateMutability": "nonpayable",
			"type": "function"
		},
		{
			"inputs": [
				{
					"internalType": "address",
					"name": "operator",
					"type": "address"
				},
				{
					"internalType": "bool",
					"name": "approved",
					"type": "bool"
				}
			],
			"name": "setApprovalForAll",
			"outputs": [],
			"stateMutability": "nonpayable",
			"type": "function"
		},
		{
			"inputs": [
				{
					"internalType": "bytes4",
					"name": "interfaceId",
					"type": "bytes4"
				}
			],
			"name": "supportsInterface",
			"outputs": [
				{
					"internalType": "bool",
					"name": "",
					"type": "bool"
				}
			],
			"stateMutability": "view",
			"type": "function"
		},
		{
			"inputs": [],
			"name": "symbol",
			"outputs": [
				{
					"internalType": "string",
					"name": "",
					"type": "string"
				}
			],
			"stateMutability": "view",
			"type": "function"
		},
		{
			"inputs": [
				{
					"internalType": "uint256",
					"name": "tokenId",
					"type": "uint256"
				}
			],
			"name": "tokenURI",
			"outputs": [
				{
					"internalType": "string",
					"name": "",
					"type": "string"
				}
			],
			"stateMutability": "view",
			"type": "function"
		},
		{
			"inputs": [
				{
					"internalType": "address",
					"name": "from",
					"type": "address"
				},
				{
					"internalType": "address",
					"name": "to",
					"type": "address"
				},
				{
					"internalType": "uint256",
					"name": "tokenId",
					"type": "uint256"
				}
			],
			"name": "transferFrom",
			"outputs": [],
			"stateMutability": "nonpayable",
			"type": "function"
		}
	],
	"bytecode": "0x608060405260026009556064600a556000600b55604051806101600160405280610130815260200162004d3b6101309139600c908051906020019062000047929190620005e3565b506040518060a00160405280606e815260200162004712606e9139600d908051906020019062000079929190620005e3565b506040518060800160405280605a8152602001620046b8605a9139600e9080519060200190620000ab929190620005e3565b506040518060400160405280601581526020017f3c2f746578743e3c696d61676520687265663d22200000000000000000000000815250600f9080519060200190620000f9929190620005e3565b5060405180608001604052806041815260200162004cfa60419139601090805190602001906200012b929190620005e3565b506040518060a001604052806040518060400160405280600981526020017f42756c626173617572000000000000000000000000000000000000000000000081525081526020016040518060400160405280600a81526020017f436861726d616e6465720000000000000000000000000000000000000000000081525081526020016040518060400160405280600881526020017f5371756972746c6500000000000000000000000000000000000000000000000081525081526020016040518060400160405280600781526020017f50696b616368750000000000000000000000000000000000000000000000000081525081526020016040518060400160405280600581526020017f456576656500000000000000000000000000000000000000000000000000000081525081525060119060056200026e92919062000674565b506040518060a001604052806040518060400160405280600781526020017f233942434335300000000000000000000000000000000000000000000000000081525081526020016040518060400160405280600781526020017f234644374432340000000000000000000000000000000000000000000000000081525081526020016040518060400160405280600781526020017f233330413744370000000000000000000000000000000000000000000000000081525081526020016040518060400160405280600781526020017f234545443533350000000000000000000000000000000000000000000000000081525081526020016040518060400160405280600781526020017f23413441434146000000000000000000000000000000000000000000000000008152508152506012906005620003b192919062000674565b506040518060a001604052806040518060a001604052806068815260200162004a946068913981526020016040518060a001604052806063815260200162004199606391398152602001604051806080016040528060588152602001620046606058913981526020016040518060a0016040528060668152602001620047806066913981526020016040518060800160405280605c8152602001620047e6605c913981525060139060056200046892919062000674565b506040518060a00160405280604051806102400160405280610216815260200162003f836102169139815260200160405180610280016040528061024281526020016200441e610242913981526020016040518061026001604052806102228152602001620041fc610222913981526020016040518061022001604052806101fe815260200162004afc6101fe91398152602001604051806102800160405280610252815260200162004842610252913981525060149060056200052e92919062000674565b503480156200053c57600080fd5b506040518060400160405280600b81526020017f506b59656c6c6f774e66740000000000000000000000000000000000000000008152506040518060400160405280600881526020017f504b59454c4c4f570000000000000000000000000000000000000000000000008152508160009080519060200190620005c1929190620005e3565b508060019080519060200190620005da929190620005e3565b505050620007cd565b828054620005f19062000768565b90600052602060002090601f01602090048101928262000615576000855562000661565b82601f106200063057805160ff191683800117855562000661565b8280016001018555821562000661579182015b828111156200066057825182559160200191906001019062000643565b5b509050620006709190620006db565b5090565b828054828255906000526020600020908101928215620006c8579160200282015b82811115620006c7578251829080519060200190620006b6929190620005e3565b509160200191906001019062000695565b5b509050620006d79190620006fa565b5090565b5b80821115620006f6576000816000905550600101620006dc565b5090565b5b808211156200071e576000818162000714919062000722565b50600101620006fb565b5090565b508054620007309062000768565b6000825580601f1062000744575062000765565b601f016020900490600052602060002090810190620007649190620006db565b5b50565b600060028204905060018216806200078157607f821691505b602082108114156200079857620007976200079e565b5b50919050565b7f4e487b7100000000000000000000000000000000000000000000000000000000600052602260045260246000fd5b6137a680620007dd6000396000f3fe608060405234801561001057600080fd5b506004361061010b5760003560e01c80636352211e116100a2578063a22cb46511610071578063a22cb465146102a6578063b88d4fde146102c2578063c87b56dd146102de578063e985e9c51461030e578063f0292a031461033e5761010b565b80636352211e1461020a57806370a082311461023a57806394fe82511461026a57806395d89b41146102885761010b565b80630aaef285116100de5780630aaef285146101aa57806323b872dd146101c857806342842e0e146101e457806360cc9283146102005761010b565b806301ffc9a71461011057806306fdde0314610140578063081812fc1461015e578063095ea7b31461018e575b600080fd5b61012a60048036038101906101259190612258565b61035c565b60405161013791906129ae565b60405180910390f35b61014861043e565b60405161015591906129c9565b60405180910390f35b610178600480360381019061017391906122aa565b6104d0565b6040516101859190612947565b60405180910390f35b6101a860048036038101906101a3919061221c565b610555565b005b6101b261066d565b6040516101bf9190612c2b565b60405180910390f35b6101e260048036038101906101dd9190612116565b610673565b005b6101fe60048036038101906101f99190612116565b6106d3565b005b6102086106f3565b005b610224600480360381019061021f91906122aa565b610aad565b6040516102319190612947565b60405180910390f35b610254600480360381019061024f91906120b1565b610b5f565b6040516102619190612c2b565b60405180910390f35b610272610c17565b60405161027f9190612c2b565b60405180910390f35b610290610c1d565b60405161029d91906129c9565b60405180910390f35b6102c060048036038101906102bb91906121e0565b610caf565b005b6102dc60048036038101906102d79190612165565b610e30565b005b6102f860048036038101906102f391906122aa565b610e92565b60405161030591906129c9565b60405180910390f35b610328600480360381019061032391906120da565b610fe4565b60405161033591906129ae565b60405180910390f35b610346611078565b6040516103539190612c2b565b60405180910390f35b60007f80ac58cd000000000000000000000000000000000000000000000000000000007bffffffffffffffffffffffffffffffffffffffffffffffffffffffff1916827bffffffffffffffffffffffffffffffffffffffffffffffffffffffff1916148061042757507f5b5e139f000000000000000000000000000000000000000000000000000000007bffffffffffffffffffffffffffffffffffffffffffffffffffffffff1916827bffffffffffffffffffffffffffffffffffffffffffffffffffffffff1916145b8061043757506104368261107e565b5b9050919050565b60606000805461044d90612ebf565b80601f016020809104026020016040519081016040528092919081815260200182805461047990612ebf565b80156104c65780601f1061049b576101008083540402835291602001916104c6565b820191906000526020600020905b8154815290600101906020018083116104a957829003601f168201915b5050505050905090565b60006104db826110e8565b61051a576040517f08c379a000000000000000000000000000000000000000000000000000000000815260040161051190612b4b565b60405180910390fd5b6004600083815260200190815260200160002060009054906101000a900473ffffffffffffffffffffffffffffffffffffffff169050919050565b600061056082610aad565b90508073ffffffffffffffffffffffffffffffffffffffff168373ffffffffffffffffffffffffffffffffffffffff1614156105d1576040517f08c379a00000000000000000000000000000000000000000000000000000000081526004016105c890612bab565b60405180910390fd5b8073ffffffffffffffffffffffffffffffffffffffff166105f0611154565b73ffffffffffffffffffffffffffffffffffffffff16148061061f575061061e81610619611154565b610fe4565b5b61065e576040517f08c379a000000000000000000000000000000000000000000000000000000000815260040161065590612a8b565b60405180910390fd5b610668838361115c565b505050565b60095481565b61068461067e611154565b82611215565b6106c3576040517f08c379a00000000000000000000000000000000000000000000000000000000081526004016106ba90612beb565b60405180910390fd5b6106ce8383836112f3565b505050565b6106ee83838360405180602001604052806000815250610e30565b505050565b600954600860003373ffffffffffffffffffffffffffffffffffffffff1673ffffffffffffffffffffffffffffffffffffffff1681526020019081526020016000205410610776576040517f08c379a000000000000000000000000000000000000000000000000000000000815260040161076d90612bcb565b60405180910390fd5b600a54600b54106107bc576040517f08c379a00000000000000000000000000000000000000000000000000000000081526004016107b390612c0b565b60405180910390fd5b60006107c8600761154f565b905060006107d58261155d565b905060006107e2836115ad565b90506000600c60128481548110610822577f4e487b7100000000000000000000000000000000000000000000000000000000600052603260045260246000fd5b90600052602060002001600d60118681548110610868577f4e487b7100000000000000000000000000000000000000000000000000000000600052603260045260246000fd5b90600052602060002001600e86600f60148a815481106108b1577f4e487b7100000000000000000000000000000000000000000000000000000000600052603260045260246000fd5b9060005260206000200160106040516020016108d5999897969594939291906127df565b604051602081830303815290604052905060006109a260118581548110610925577f4e487b7100000000000000000000000000000000000000000000000000000000600052603260045260246000fd5b9060005260206000200160138681548110610969577f4e487b7100000000000000000000000000000000000000000000000000000000600052603260045260246000fd5b9060005260206000200161097c85611605565b60405160200161098e93929190612862565b604051602081830303815290604052611605565b90506000816040516020016109b791906128f2565b60405160208183030381529060405290506001600860003373ffffffffffffffffffffffffffffffffffffffff1673ffffffffffffffffffffffffffffffffffffffff1681526020019081526020016000206000828254610a189190612cf4565b925050819055506001600b6000828254610a329190612cf4565b92505081905550610a4333876117c3565b610a4d86826117e1565b610a576007611855565b3373ffffffffffffffffffffffffffffffffffffffff167f52277f0b4a9b555c5aa96900a13546f972bda413737ec164aac947c87eec602487604051610a9d9190612c2b565b60405180910390a2505050505050565b6000806002600084815260200190815260200160002060009054906101000a900473ffffffffffffffffffffffffffffffffffffffff169050600073ffffffffffffffffffffffffffffffffffffffff168173ffffffffffffffffffffffffffffffffffffffff161415610b56576040517f08c379a0000000000000000000000000000000000000000000000000000000008152600401610b4d90612acb565b60405180910390fd5b80915050919050565b60008073ffffffffffffffffffffffffffffffffffffffff168273ffffffffffffffffffffffffffffffffffffffff161415610bd0576040517f08c379a0000000000000000000000000000000000000000000000000000000008152600401610bc790612aab565b60405180910390fd5b600360008373ffffffffffffffffffffffffffffffffffffffff1673ffffffffffffffffffffffffffffffffffffffff168152602001908152602001600020549050919050565b600b5481565b606060018054610c2c90612ebf565b80601f0160208091040260200160405190810160405280929190818152602001828054610c5890612ebf565b8015610ca55780601f10610c7a57610100808354040283529160200191610ca5565b820191906000526020600020905b815481529060010190602001808311610c8857829003601f168201915b5050505050905090565b610cb7611154565b73ffffffffffffffffffffffffffffffffffffffff168273ffffffffffffffffffffffffffffffffffffffff161415610d25576040517f08c379a0000000000000000000000000000000000000000000000000000000008152600401610d1c90612a4b565b60405180910390fd5b8060056000610d32611154565b73ffffffffffffffffffffffffffffffffffffffff1673ffffffffffffffffffffffffffffffffffffffff16815260200190815260200160002060008473ffffffffffffffffffffffffffffffffffffffff1673ffffffffffffffffffffffffffffffffffffffff16815260200190815260200160002060006101000a81548160ff0219169083151502179055508173ffffffffffffffffffffffffffffffffffffffff16610ddf611154565b73ffffffffffffffffffffffffffffffffffffffff167f17307eab39ab6107e8899845ad3d59bd9653f200f220920489ca2b5937696c3183604051610e2491906129ae565b60405180910390a35050565b610e41610e3b611154565b83611215565b610e80576040517f08c379a0000000000000000000000000000000000000000000000000000000008152600401610e7790612beb565b60405180910390fd5b610e8c8484848461186b565b50505050565b6060610e9d826110e8565b610edc576040517f08c379a0000000000000000000000000000000000000000000000000000000008152600401610ed390612b2b565b60405180910390fd5b6000600660008481526020019081526020016000208054610efc90612ebf565b80601f0160208091040260200160405190810160405280929190818152602001828054610f2890612ebf565b8015610f755780601f10610f4a57610100808354040283529160200191610f75565b820191906000526020600020905b815481529060010190602001808311610f5857829003601f168201915b505050505090506000610f866118c7565b9050600081511415610f9c578192505050610fdf565b600082511115610fd1578082604051602001610fb99291906127bb565b60405160208183030381529060405292505050610fdf565b610fda846118de565b925050505b919050565b6000600560008473ffffffffffffffffffffffffffffffffffffffff1673ffffffffffffffffffffffffffffffffffffffff16815260200190815260200160002060008373ffffffffffffffffffffffffffffffffffffffff1673ffffffffffffffffffffffffffffffffffffffff16815260200190815260200160002060009054906101000a900460ff16905092915050565b600a5481565b60007f01ffc9a7000000000000000000000000000000000000000000000000000000007bffffffffffffffffffffffffffffffffffffffffffffffffffffffff1916827bffffffffffffffffffffffffffffffffffffffffffffffffffffffff1916149050919050565b60008073ffffffffffffffffffffffffffffffffffffffff166002600084815260200190815260200160002060009054906101000a900473ffffffffffffffffffffffffffffffffffffffff1673ffffffffffffffffffffffffffffffffffffffff1614159050919050565b600033905090565b816004600083815260200190815260200160002060006101000a81548173ffffffffffffffffffffffffffffffffffffffff021916908373ffffffffffffffffffffffffffffffffffffffff160217905550808273ffffffffffffffffffffffffffffffffffffffff166111cf83610aad565b73ffffffffffffffffffffffffffffffffffffffff167f8c5be1e5ebec7d5bd14f71427d1e84f3dd0314c0f7b2291e5b200ac8c7c3b92560405160405180910390a45050565b6000611220826110e8565b61125f576040517f08c379a000000000000000000000000000000000000000000000000000000000815260040161125690612a6b565b60405180910390fd5b600061126a83610aad565b90508073ffffffffffffffffffffffffffffffffffffffff168473ffffffffffffffffffffffffffffffffffffffff1614806112d957508373ffffffffffffffffffffffffffffffffffffffff166112c1846104d0565b73ffffffffffffffffffffffffffffffffffffffff16145b806112ea57506112e98185610fe4565b5b91505092915050565b8273ffffffffffffffffffffffffffffffffffffffff1661131382610aad565b73ffffffffffffffffffffffffffffffffffffffff1614611369576040517f08c379a000000000000000000000000000000000000000000000000000000000815260040161136090612b6b565b60405180910390fd5b600073ffffffffffffffffffffffffffffffffffffffff168273ffffffffffffffffffffffffffffffffffffffff1614156113d9576040517f08c379a00000000000000000000000000000000000000000000000000000000081526004016113d090612a2b565b60405180910390fd5b6113e4838383611985565b6113ef60008261115c565b6001600360008573ffffffffffffffffffffffffffffffffffffffff1673ffffffffffffffffffffffffffffffffffffffff168152602001908152602001600020600082825461143f9190612dd5565b925050819055506001600360008473ffffffffffffffffffffffffffffffffffffffff1673ffffffffffffffffffffffffffffffffffffffff16815260200190815260200160002060008282546114969190612cf4565b92505081905550816002600083815260200190815260200160002060006101000a81548173ffffffffffffffffffffffffffffffffffffffff021916908373ffffffffffffffffffffffffffffffffffffffff160217905550808273ffffffffffffffffffffffffffffffffffffffff168473ffffffffffffffffffffffffffffffffffffffff167fddf252ad1be2c89b69c2b068fc378daa952ba7f163c4a11628f55a4df523b3ef60405160405180910390a4505050565b600081600001549050919050565b6000806115924261156d8561198a565b60405160200161157e929190612914565b604051602081830303815290604052611b37565b9050601180549050816115a59190612f75565b915050919050565b6000806115e2426115bd8561198a565b6040516020016115ce9291906128bf565b604051602081830303815290604052611b37565b905060056050826115f39190612f75565b6115fd9190612cf4565b915050919050565b6060600082519050600081141561162e57604051806020016040528060008152509150506117be565b6000600360028361163f9190612cf4565b6116499190612d4a565b60046116559190612d7b565b905060006020826116669190612cf4565b67ffffffffffffffff8111156116a5577f4e487b7100000000000000000000000000000000000000000000000000000000600052604160045260246000fd5b6040519080825280601f01601f1916602001820160405280156116d75781602001600182028036833780820191505090505b5090506000604051806060016040528060408152602001613731604091399050600181016020830160005b8681101561177b5760038101905062ffffff818a015116603f8160121c168401518060081b905060ff603f83600c1c1686015116810190508060081b905060ff603f8360061c1686015116810190508060081b905060ff603f831686015116810190508060e01b90508084526004840193505050611702565b50600386066001811461179557600281146117a5576117b0565b613d3d60f01b60028303526117b0565b603d60f81b60018303525b508484525050819450505050505b919050565b6117dd828260405180602001604052806000815250611b6a565b5050565b6117ea826110e8565b611829576040517f08c379a000000000000000000000000000000000000000000000000000000000815260040161182090612aeb565b60405180910390fd5b80600660008481526020019081526020016000209080519060200190611850929190611f3d565b505050565b6001816000016000828254019250508190555050565b6118768484846112f3565b61188284848484611bc5565b6118c1576040517f08c379a00000000000000000000000000000000000000000000000000000000081526004016118b8906129eb565b60405180910390fd5b50505050565b606060405180602001604052806000815250905090565b60606118e9826110e8565b611928576040517f08c379a000000000000000000000000000000000000000000000000000000000815260040161191f90612b8b565b60405180910390fd5b60006119326118c7565b90506000815111611952576040518060200160405280600081525061197d565b8061195c8461198a565b60405160200161196d9291906127bb565b6040516020818303038152906040525b915050919050565b505050565b606060008214156119d2576040518060400160405280600181526020017f30000000000000000000000000000000000000000000000000000000000000008152509050611b32565b600082905060005b60008214611a045780806119ed90612f22565b915050600a826119fd9190612d4a565b91506119da565b60008167ffffffffffffffff811115611a46577f4e487b7100000000000000000000000000000000000000000000000000000000600052604160045260246000fd5b6040519080825280601f01601f191660200182016040528015611a785781602001600182028036833780820191505090505b5090505b60008514611b2b57600182611a919190612dd5565b9150600a85611aa09190612f75565b6030611aac9190612cf4565b60f81b818381518110611ae8577f4e487b7100000000000000000000000000000000000000000000000000000000600052603260045260246000fd5b60200101907effffffffffffffffffffffffffffffffffffffffffffffffffffffffffffff1916908160001a905350600a85611b249190612d4a565b9450611a7c565b8093505050505b919050565b600081604051602001611b4a91906127a4565b6040516020818303038152906040528051906020012060001c9050919050565b611b748383611d5c565b611b816000848484611bc5565b611bc0576040517f08c379a0000000000000000000000000000000000000000000000000000000008152600401611bb7906129eb565b60405180910390fd5b505050565b6000611be68473ffffffffffffffffffffffffffffffffffffffff16611f2a565b15611d4f578373ffffffffffffffffffffffffffffffffffffffff1663150b7a02611c0f611154565b8786866040518563ffffffff1660e01b8152600401611c319493929190612962565b602060405180830381600087803b158015611c4b57600080fd5b505af1925050508015611c7c57506040513d601f19601f82011682018060405250810190611c799190612281565b60015b611cff573d8060008114611cac576040519150601f19603f3d011682016040523d82523d6000602084013e611cb1565b606091505b50600081511415611cf7576040517f08c379a0000000000000000000000000000000000000000000000000000000008152600401611cee906129eb565b60405180910390fd5b805181602001fd5b63150b7a0260e01b7bffffffffffffffffffffffffffffffffffffffffffffffffffffffff1916817bffffffffffffffffffffffffffffffffffffffffffffffffffffffff191614915050611d54565b600190505b949350505050565b600073ffffffffffffffffffffffffffffffffffffffff168273ffffffffffffffffffffffffffffffffffffffff161415611dcc576040517f08c379a0000000000000000000000000000000000000000000000000000000008152600401611dc390612b0b565b60405180910390fd5b611dd5816110e8565b15611e15576040517f08c379a0000000000000000000000000000000000000000000000000000000008152600401611e0c90612a0b565b60405180910390fd5b611e2160008383611985565b6001600360008473ffffffffffffffffffffffffffffffffffffffff1673ffffffffffffffffffffffffffffffffffffffff1681526020019081526020016000206000828254611e719190612cf4565b92505081905550816002600083815260200190815260200160002060006101000a81548173ffffffffffffffffffffffffffffffffffffffff021916908373ffffffffffffffffffffffffffffffffffffffff160217905550808273ffffffffffffffffffffffffffffffffffffffff16600073ffffffffffffffffffffffffffffffffffffffff167fddf252ad1be2c89b69c2b068fc378daa952ba7f163c4a11628f55a4df523b3ef60405160405180910390a45050565b600080823b905060008111915050919050565b828054611f4990612ebf565b90600052602060002090601f016020900481019282611f6b5760008555611fb2565b82601f10611f8457805160ff1916838001178555611fb2565b82800160010185558215611fb2579182015b82811115611fb1578251825591602001919060010190611f96565b5b509050611fbf9190611fc3565b5090565b5b80821115611fdc576000816000905550600101611fc4565b5090565b6000611ff3611fee84612c6b565b612c46565b90508281526020810184848401111561200b57600080fd5b612016848285612e7d565b509392505050565b60008135905061202d816136d4565b92915050565b600081359050612042816136eb565b92915050565b60008135905061205781613702565b92915050565b60008151905061206c81613702565b92915050565b600082601f83011261208357600080fd5b8135612093848260208601611fe0565b91505092915050565b6000813590506120ab81613719565b92915050565b6000602082840312156120c357600080fd5b60006120d18482850161201e565b91505092915050565b600080604083850312156120ed57600080fd5b60006120fb8582860161201e565b925050602061210c8582860161201e565b9150509250929050565b60008060006060848603121561212b57600080fd5b60006121398682870161201e565b935050602061214a8682870161201e565b925050604061215b8682870161209c565b9150509250925092565b6000806000806080858703121561217b57600080fd5b60006121898782880161201e565b945050602061219a8782880161201e565b93505060406121ab8782880161209c565b925050606085013567ffffffffffffffff8111156121c857600080fd5b6121d487828801612072565b91505092959194509250565b600080604083850312156121f357600080fd5b60006122018582860161201e565b925050602061221285828601612033565b9150509250929050565b6000806040838503121561222f57600080fd5b600061223d8582860161201e565b925050602061224e8582860161209c565b9150509250929050565b60006020828403121561226a57600080fd5b600061227884828501612048565b91505092915050565b60006020828403121561229357600080fd5b60006122a18482850161205d565b91505092915050565b6000602082840312156122bc57600080fd5b60006122ca8482850161209c565b91505092915050565b6122dc81612e09565b82525050565b6122eb81612e1b565b82525050565b60006122fc82612cb1565b6123068185612cc7565b9350612316818560208601612e8c565b61231f81613062565b840191505092915050565b600061233582612cbc565b61233f8185612cd8565b935061234f818560208601612e8c565b61235881613062565b840191505092915050565b600061236e82612cbc565b6123788185612ce9565b9350612388818560208601612e8c565b80840191505092915050565b600081546123a181612ebf565b6123ab8186612ce9565b945060018216600081146123c657600181146123d75761240a565b60ff1983168652818601935061240a565b6123e085612c9c565b60005b83811015612402578154818901526001820191506020810190506123e3565b838801955050505b50505092915050565b6000612420601383612ce9565b915061242b82613073565b601382019050919050565b6000612443603283612cd8565b915061244e8261309c565b604082019050919050565b6000612466601c83612cd8565b9150612471826130eb565b602082019050919050565b6000612489602483612cd8565b915061249482613114565b604082019050919050565b60006124ac601983612cd8565b91506124b782613163565b602082019050919050565b60006124cf602c83612cd8565b91506124da8261318c565b604082019050919050565b60006124f2603883612cd8565b91506124fd826131db565b604082019050919050565b6000612515602a83612cd8565b91506125208261322a565b604082019050919050565b6000612538602983612cd8565b915061254382613279565b604082019050919050565b600061255b602e83612cd8565b9150612566826132c8565b604082019050919050565b600061257e600283612ce9565b915061258982613317565b600282019050919050565b60006125a1602083612cd8565b91506125ac82613340565b602082019050919050565b60006125c4603183612cd8565b91506125cf82613369565b604082019050919050565b60006125e7602c83612cd8565b91506125f2826133b8565b604082019050919050565b600061260a602983612cd8565b915061261582613407565b604082019050919050565b600061262d602f83612cd8565b915061263882613456565b604082019050919050565b6000612650602783612ce9565b915061265b826134a5565b602782019050919050565b6000612673600a83612ce9565b915061267e826134f4565b600a82019050919050565b6000612696600583612ce9565b91506126a18261351d565b600582019050919050565b60006126b9602183612cd8565b91506126c482613546565b604082019050919050565b60006126dc602483612cd8565b91506126e782613595565b604082019050919050565b60006126ff601d83612ce9565b915061270a826135e4565b601d82019050919050565b6000612722600783612ce9565b915061272d8261360d565b600782019050919050565b6000612745603183612cd8565b915061275082613636565b604082019050919050565b6000612768602383612cd8565b915061277382613685565b604082019050919050565b61278781612e73565b82525050565b61279e61279982612e73565b612f6b565b82525050565b60006127b08284612363565b915081905092915050565b60006127c78285612363565b91506127d38284612363565b91508190509392505050565b60006127eb828c612394565b91506127f7828b612394565b9150612803828a612394565b915061280f8289612394565b915061281b8288612394565b9150612827828761278d565b6020820191506128378286612394565b91506128438285612394565b915061284f8284612394565b91508190509a9950505050505050505050565b600061286d82612666565b91506128798286612394565b915061288482612413565b91506128908285612394565b915061289b82612643565b91506128a78284612363565b91506128b282612571565b9150819050949350505050565b60006128ca82612689565b91506128d6828561278d565b6020820191506128e68284612363565b91508190509392505050565b60006128fd826126f2565b91506129098284612363565b915081905092915050565b600061291f82612715565b915061292b828561278d565b60208201915061293b8284612363565b91508190509392505050565b600060208201905061295c60008301846122d3565b92915050565b600060808201905061297760008301876122d3565b61298460208301866122d3565b612991604083018561277e565b81810360608301526129a381846122f1565b905095945050505050565b60006020820190506129c360008301846122e2565b92915050565b600060208201905081810360008301526129e3818461232a565b905092915050565b60006020820190508181036000830152612a0481612436565b9050919050565b60006020820190508181036000830152612a2481612459565b9050919050565b60006020820190508181036000830152612a448161247c565b9050919050565b60006020820190508181036000830152612a648161249f565b9050919050565b60006020820190508181036000830152612a84816124c2565b9050919050565b60006020820190508181036000830152612aa4816124e5565b9050919050565b60006020820190508181036000830152612ac481612508565b9050919050565b60006020820190508181036000830152612ae48161252b565b9050919050565b60006020820190508181036000830152612b048161254e565b9050919050565b60006020820190508181036000830152612b2481612594565b9050919050565b60006020820190508181036000830152612b44816125b7565b9050919050565b60006020820190508181036000830152612b64816125da565b9050919050565b60006020820190508181036000830152612b84816125fd565b9050919050565b60006020820190508181036000830152612ba481612620565b9050919050565b60006020820190508181036000830152612bc4816126ac565b9050919050565b60006020820190508181036000830152612be4816126cf565b9050919050565b60006020820190508181036000830152612c0481612738565b9050919050565b60006020820190508181036000830152612c248161275b565b9050919050565b6000602082019050612c40600083018461277e565b92915050565b6000612c50612c61565b9050612c5c8282612ef1565b919050565b6000604051905090565b600067ffffffffffffffff821115612c8657612c85613033565b5b612c8f82613062565b9050602081019050919050565b60008190508160005260206000209050919050565b600081519050919050565b600081519050919050565b600082825260208201905092915050565b600082825260208201905092915050565b600081905092915050565b6000612cff82612e73565b9150612d0a83612e73565b9250827fffffffffffffffffffffffffffffffffffffffffffffffffffffffffffffffff03821115612d3f57612d3e612fa6565b5b828201905092915050565b6000612d5582612e73565b9150612d6083612e73565b925082612d7057612d6f612fd5565b5b828204905092915050565b6000612d8682612e73565b9150612d9183612e73565b9250817fffffffffffffffffffffffffffffffffffffffffffffffffffffffffffffffff0483118215151615612dca57612dc9612fa6565b5b828202905092915050565b6000612de082612e73565b9150612deb83612e73565b925082821015612dfe57612dfd612fa6565b5b828203905092915050565b6000612e1482612e53565b9050919050565b60008115159050919050565b60007fffffffff0000000000000000000000000000000000000000000000000000000082169050919050565b600073ffffffffffffffffffffffffffffffffffffffff82169050919050565b6000819050919050565b82818337600083830152505050565b60005b83811015612eaa578082015181840152602081019050612e8f565b83811115612eb9576000848401525b50505050565b60006002820490506001821680612ed757607f821691505b60208210811415612eeb57612eea613004565b5b50919050565b612efa82613062565b810181811067ffffffffffffffff82111715612f1957612f18613033565b5b80604052505050565b6000612f2d82612e73565b91507fffffffffffffffffffffffffffffffffffffffffffffffffffffffffffffffff821415612f6057612f5f612fa6565b5b600182019050919050565b6000819050919050565b6000612f8082612e73565b9150612f8b83612e73565b925082612f9b57612f9a612fd5565b5b828206905092915050565b7f4e487b7100000000000000000000000000000000000000000000000000000000600052601160045260246000fd5b7f4e487b7100000000000000000000000000000000000000000000000000000000600052601260045260246000fd5b7f4e487b7100000000000000000000000000000000000000000000000000000000600052602260045260246000fd5b7f4e487b7100000000000000000000000000000000000000000000000000000000600052604160045260246000fd5b6000601f19601f8301169050919050565b7f222c20226465736372697074696f6e223a202200000000000000000000000000600082015250565b7f4552433732313a207472616e7366657220746f206e6f6e20455243373231526560008201527f63656976657220696d706c656d656e7465720000000000000000000000000000602082015250565b7f4552433732313a20746f6b656e20616c7265616479206d696e74656400000000600082015250565b7f4552433732313a207472616e7366657220746f20746865207a65726f2061646460008201527f7265737300000000000000000000000000000000000000000000000000000000602082015250565b7f4552433732313a20617070726f766520746f2063616c6c657200000000000000600082015250565b7f4552433732313a206f70657261746f7220717565727920666f72206e6f6e657860008201527f697374656e7420746f6b656e0000000000000000000000000000000000000000602082015250565b7f4552433732313a20617070726f76652063616c6c6572206973206e6f74206f7760008201527f6e6572206e6f7220617070726f76656420666f7220616c6c0000000000000000602082015250565b7f4552433732313a2062616c616e636520717565727920666f7220746865207a6560008201527f726f206164647265737300000000000000000000000000000000000000000000602082015250565b7f4552433732313a206f776e657220717565727920666f72206e6f6e657869737460008201527f656e7420746f6b656e0000000000000000000000000000000000000000000000602082015250565b7f45524337323155524953746f726167653a2055524920736574206f66206e6f6e60008201527f6578697374656e7420746f6b656e000000000000000000000000000000000000602082015250565b7f227d000000000000000000000000000000000000000000000000000000000000600082015250565b7f4552433732313a206d696e7420746f20746865207a65726f2061646472657373600082015250565b7f45524337323155524953746f726167653a2055524920717565727920666f722060008201527f6e6f6e6578697374656e7420746f6b656e000000000000000000000000000000602082015250565b7f4552433732313a20617070726f76656420717565727920666f72206e6f6e657860008201527f697374656e7420746f6b656e0000000000000000000000000000000000000000602082015250565b7f4552433732313a207472616e73666572206f6620746f6b656e2074686174206960008201527f73206e6f74206f776e0000000000000000000000000000000000000000000000602082015250565b7f4552433732314d657461646174613a2055524920717565727920666f72206e6f60008201527f6e6578697374656e7420746f6b656e0000000000000000000000000000000000602082015250565b7f222c2022696d616765223a2022646174613a696d6167652f7376672b786d6c3b60008201527f6261736536342c00000000000000000000000000000000000000000000000000602082015250565b7f7b226e616d65223a202200000000000000000000000000000000000000000000600082015250565b7f4c4556454c000000000000000000000000000000000000000000000000000000600082015250565b7f4552433732313a20617070726f76616c20746f2063757272656e74206f776e6560008201527f7200000000000000000000000000000000000000000000000000000000000000602082015250565b7f596f752068617665207265616368656420796f7572206d696e74696e67206c6960008201527f6d69742e00000000000000000000000000000000000000000000000000000000602082015250565b7f646174613a6170706c69636174696f6e2f6a736f6e3b6261736536342c000000600082015250565b7f5354415254455200000000000000000000000000000000000000000000000000600082015250565b7f4552433732313a207472616e736665722063616c6c6572206973206e6f74206f60008201527f776e6572206e6f7220617070726f766564000000000000000000000000000000602082015250565b7f546865726520617265206e6f206d6f7265204e46547320666f72206d696e746960008201527f6e672e0000000000000000000000000000000000000000000000000000000000602082015250565b6136dd81612e09565b81146136e857600080fd5b50565b6136f481612e1b565b81146136ff57600080fd5b50565b61370b81612e27565b811461371657600080fd5b50565b61372281612e73565b811461372d57600080fd5b5056fe4142434445464748494a4b4c4d4e4f505152535455565758595a6162636465666768696a6b6c6d6e6f707172737475767778797a303132333435363738392b2fa264697066735822122099ed484fb3f5b5165c8385b1e00bb990219c3d2e17e8dd0e87acdbbf7c59712f64736f6c63430008040033646174613a696d6167652f706e673b6261736536342c6956424f5277304b47676f414141414e5355684555674141414367414141416f41674d41414144786b46442b414141414446424d5645574d2f31722f2f2f385a47526b49745447375847574c414141424c556c45515651596c574d4968514d4743706852572b484d2f4e55775a6c6a2f2f716c51356776372f5538687a4c6a462f2f662f676a43542b2f2b742f3330567a507a332f39583656302f427a4c35567131617657676c69567530574451313464522f45544f463159474351644149784377347738444d77384947593854774739676365574638464d694f6162657a5064667965436d5247365a7a6874356251427a486a36686b4f36457659673568465a51774d32322f77673567702f7751592f702f674270764c6f4d5441774d41465a6c6f64654c576177513573786674582f3138643041475a473766382f2f397661777841326d72572f2f2f2f613050445669427a45392b715661734f4d6677454d682b73415272776875466b4b454f5941764f715665735a6a412b426d422b732f2f2b775a2f6f455a503734772f662f7a582b6d663043314f327a342f6a2f3477772f53746f34427947537766676c6b5a6a566f726c724438476f706b446e7a31613351736e4e70494e75716c72304e6a55746243773653534742347a55514e6451416d7961334d716a37414d6741414141424a52553545726b4a6767673d3d497420686173206120707265666572656e636520666f7220686f74207468696e67732e205768656e206974207261696e732c20737465616d206973207361696420746f2073706f75742066726f6d2074686520746970206f6620697473207461696c2e646174613a696d6167652f706e673b6261736536342c6956424f5277304b47676f414141414e5355684555674141414367414141416f41674d41414144786b46442b414141414446424d56455745317638416a502f2f2f2f385a47526e6148722f57414141424e6b6c45515651596c574e594251634d524443582f3738465931356734495579567a4d774d4c79434d4e63416d564951356849673077724337475267764341475963356d59507369423246755a2b4437457764687a6d666776514e6c756a4b7735385a6e675a6972447a4177667638444d6f316853346b4c41342b4e4c596735775a6968566b526d4b6c414677787265757777464c4b314171786d5773463567504f6938464353366b7648342f344f4f696c45674535676247417759736e2b427a4432386749475834534649644e58575651337344716c68494f61362b762b337733586a774d7a5671316256746f4b5a363165765773307a46637863396e4c56757236746453446d796c315a7539716d58357566426651784d42775965614d4f57414646587a67742f3336346d6f455036474d4441573357433238593249446849477641776c6767774d414f5a4c4a2b6b57476f443542684253706772502f4455427269434653376b6a467544554e7336415578554a68567257474971772b74416f722b7a317243454c634b5a41555172486173676b6641584c5334414143304838324c74712f44707741414141424a52553545726b4a6767673d3d646174613a696d6167652f706e673b6261736536342c6956424f5277304b47676f414141414e5355684555674141414367414141416f41674d41414144786b46442b414141414446424d5645582f4141442f2f2f385a47526e2f6a41437a564674784141414254306c45515651596c545851763076445542414838434f672b41504a6c4d576c56516d554c6b36644c4d30714c6931704c684771324d3146645041504b416a4f7753453453756d6958646f2f51444256696e556f6e647864416d362b787157465a3839376a2f53477834666a792b50754150476f6a626f41505564474757766b4a426b62386d3265735571325a4a77796932463777627847384d7455554e30596f553430496b757a73664649784c2f466e31446266676f314c66433633513448416d45424676494647754b5a4b4148752f6278533475624543726a3746464d53506f6778564875304f666b3263723844754e7a353634555463553844714d64707861524651465077524765554936486f793249706f48576b4d57422f43774e705935502f6264714949734a6e6e74666c73644c6f634b485735466c6f315a6b796b646e364d75654b48476a4e7a4f47794f7a4f544c4e75614f52477a506b5355554e4633344e74514f6c5738476a446c72614c7a675948654766416c526f2b6b706d4e594a785272586b41764657417072686e7554646c51527a32574276714f356e6e6651432f4e4b3772644e767276427a71727972364c6c6e52332b666b486a36472b477a5576384e7341414141415355564f524b35435949493d5768656e20697420726574726163747320697473206c6f6e67206e65636b20696e746f20697473207368656c6c2c2069742073717569727473206f75742077617465722077697468207669676f726f757320666f7263652e3c2f746578743e3c7465787420783d223530252220793d223832252220636c6173733d22626173652220646f6d696e616e742d626173656c696e653d226d6964646c652220746578742d616e63686f723d226d6964646c65223e22207374726f6b652d77696474683d22333022202f3e3c7465787420783d223530252220793d223735252220636c6173733d226261736520626f6c642220646f6d696e616e742d626173656c696e653d226d6964646c652220746578742d616e63686f723d226d6964646c65223e50696b6163687520746861742063616e2067656e657261746520706f77657266756c20656c656374726963697479206861766520636865656b207361637320746861742061726520657874726120736f667420616e642073757065722073747265746368792e49742068617320746865206162696c69747920746f20616c7465722074686520636f6d706f736974696f6e206f662069747320626f647920746f20737569742069747320737572726f756e64696e6720656e7669726f6e6d656e742e646174613a696d6167652f706e673b6261736536342c6956424f5277304b47676f414141414e5355684555674141414367414141416f41674d41414144786b46442b414141414446424d5645566157696e2f2f2f385a47526d6c76564a5953366e504141414257306c45515651596c5558527355744363524148384f75426f43304f3861626154416a62616f316e693050676b7672567a4d4c4b624b326c4c56494d6d774b6e4830464c56676a796f4b577453544d45793647705079424543426f555179683464743354794e2f3034666a4333652b4f38502f494f2b623948395956476670516b544e467162636850563146516350576d6e554e53726a74524d475841345539537049393077574b66745342684b2f734255556137564d564e49734b684c75767a3663464d79637473505443316e505a465244754d2f4d506c6261464957612f4e596c645961526a7458713332424e477033696d42775355634a6f7668436f6767586b32613443654a6f51395046644446464a4e634f47786968525770636f57543644794770657364644e3152646c6d794d316b4a4c6a2f54516873455632654d417631412f4d7132526c5374626b66457a34517a76584d494e5a6972685038436f4e596b396c4c434737694b4f6c6b64684232446e47386b574e5a43517748656f5a6d6b55366f7a475961525932634d6e716c79566c4e6f37787738623263396447562f666c554b5634745a5a584e6b4235662f694f776f75567a2b6f6870545a2f44694b486936437a6a592f304334562b343069456375367741414141415355564f524b35435949493d5468657265206973206120706c616e742073656564206f6e20697473206261636b2072696768742066726f6d2074686520646179207468697320506f6b656d6f6e20697320626f726e2e20546865207365656420736c6f776c792067726f7773206c61726765722e646174613a696d6167652f706e673b6261736536342c6956424f5277304b47676f414141414e5355684555674141414367414141416f41674d41414144786b46442b414141414446424d5645586d6377442f2f2f385a47526e2f2f7742424e354c624141414248456c4551565159475158424957745755526741344c63736d43773777626867554c4335487a446348536f59507539357a7432396e2b41564f514d6e4b74713044495246343945734b7a4b7a4e71506748376a3741634b364273456938336e69466f43346d7742692b6767513939384352476b4e386d6d4b33437279795a7355747664666e643438385550344e69533959557434736344527362446578744666516c375148784d4b46484c4945314e6d43763142632f416865523747772b61774e562f44616d4b53796c6e595453585a3664596c7a4275492b71794565574e7a553951764a65796d523366733743306c6a4f437a456e6f5962736768512b367351752f6850384d564e59794750377a5877716870557174686c5a4b553974545174533572543652517a327370792b4d7a6f5836764a53395066777631645a6658356e4f68506d6a656d53384a485a69764369767773776b6a7545596f4d4453434e6c777342634739583348354a594b3235585a426344334a6e2f41666a78655234652b6a4b354d41414141415355564f524b35435949493d22206865696768743d22313030222077696474683d2231303022207472616e73666f726d3d227472616e736c617465283132352c31323529222f3e3c2f7376673e3c73766720786d6c6e733d22687474703a2f2f7777772e77332e6f72672f323030302f73766722207072657365727665417370656374526174696f3d22784d696e594d696e206d656574222076696577426f783d223020302033353020333530223e3c7374796c653e2e62617365207b2066696c6c3a20626c61636b3b20666f6e742d66616d696c793a2073616e732d73657269663b20666f6e742d73697a653a20313870783b207d202e626f6c64207b20666f6e742d73697a653a20323070783b20666f6e742d7765696768743a20626f6c643b20746578742d7472616e73666f726d3a207570706572636173653b207d3c2f7374796c653e3c726563742077696474683d223130302522206865696768743d2231303025222066696c6c3d22776869746522207374726f6b653d22",
	"linkReferences": {},
	"deployedLinkReferences": {}
}