{
	"_format": "hh-sol-artifact-1",
	"contractName": "PkYellowNft",
	"sourceName": "contracts/PkYellowNft.sol",
	"abi": [
		{
			"inputs": [],
			"stateMutability": "nonpayable",
			"type": "constructor"
		},
		{
			"anonymous": false,
			"inputs": [
				{
					"indexed": true,
					"internalType": "address",
					"name": "owner",
					"type": "address"
				},
				{
					"indexed": true,
					"internalType": "address",
					"name": "approved",
					"type": "address"
				},
				{
					"indexed": true,
					"internalType": "uint256",
					"name": "tokenId",
					"type": "uint256"
				}
			],
			"name": "Approval",
			"type": "event"
		},
		{
			"anonymous": false,
			"inputs": [
				{
					"indexed": true,
					"internalType": "address",
					"name": "owner",
					"type": "address"
				},
				{
					"indexed": true,
					"internalType": "address",
					"name": "operator",
					"type": "address"
				},
				{
					"indexed": false,
					"internalType": "bool",
					"name": "approved",
					"type": "bool"
				}
			],
			"name": "ApprovalForAll",
			"type": "event"
		},
		{
			"anonymous": false,
			"inputs": [
				{
					"indexed": true,
					"internalType": "address",
					"name": "from",
					"type": "address"
				},
				{
					"indexed": false,
					"internalType": "uint256",
					"name": "tokenId",
					"type": "uint256"
				}
			],
			"name": "NewMint",
			"type": "event"
		},
		{
			"anonymous": false,
			"inputs": [
				{
					"indexed": true,
					"internalType": "address",
					"name": "from",
					"type": "address"
				},
				{
					"indexed": true,
					"internalType": "address",
					"name": "to",
					"type": "address"
				},
				{
					"indexed": true,
					"internalType": "uint256",
					"name": "tokenId",
					"type": "uint256"
				}
			],
			"name": "Transfer",
			"type": "event"
		},
		{
			"inputs": [],
			"name": "MAX_MINT",
			"outputs": [
				{
					"internalType": "uint256",
					"name": "",
					"type": "uint256"
				}
			],
			"stateMutability": "view",
			"type": "function"
		},
		{
			"inputs": [],
			"name": "MAX_PER_ADDRESS",
			"outputs": [
				{
					"internalType": "uint256",
					"name": "",
					"type": "uint256"
				}
			],
			"stateMutability": "view",
			"type": "function"
		},
		{
			"inputs": [
				{
					"internalType": "address",
					"name": "to",
					"type": "address"
				},
				{
					"internalType": "uint256",
					"name": "tokenId",
					"type": "uint256"
				}
			],
			"name": "approve",
			"outputs": [],
			"stateMutability": "nonpayable",
			"type": "function"
		},
		{
			"inputs": [
				{
					"internalType": "address",
					"name": "owner",
					"type": "address"
				}
			],
			"name": "balanceOf",
			"outputs": [
				{
					"internalType": "uint256",
					"name": "",
					"type": "uint256"
				}
			],
			"stateMutability": "view",
			"type": "function"
		},
		{
			"inputs": [
				{
					"internalType": "uint256",
					"name": "tokenId",
					"type": "uint256"
				}
			],
			"name": "getApproved",
			"outputs": [
				{
					"internalType": "address",
					"name": "",
					"type": "address"
				}
			],
			"stateMutability": "view",
			"type": "function"
		},
		{
			"inputs": [],
			"name": "getTotalIssued",
			"outputs": [
				{
					"internalType": "uint256",
					"name": "",
					"type": "uint256"
				}
			],
			"stateMutability": "view",
			"type": "function"
		},
		{
			"inputs": [
				{
					"internalType": "address",
					"name": "owner",
					"type": "address"
				},
				{
					"internalType": "address",
					"name": "operator",
					"type": "address"
				}
			],
			"name": "isApprovedForAll",
			"outputs": [
				{
					"internalType": "bool",
					"name": "",
					"type": "bool"
				}
			],
			"stateMutability": "view",
			"type": "function"
		},
		{
			"inputs": [],
			"name": "mintPokemon",
			"outputs": [],
			"stateMutability": "nonpayable",
			"type": "function"
		},
		{
			"inputs": [],
			"name": "name",
			"outputs": [
				{
					"internalType": "string",
					"name": "",
					"type": "string"
				}
			],
			"stateMutability": "view",
			"type": "function"
		},
		{
			"inputs": [
				{
					"internalType": "uint256",
					"name": "tokenId",
					"type": "uint256"
				}
			],
			"name": "ownerOf",
			"outputs": [
				{
					"internalType": "address",
					"name": "",
					"type": "address"
				}
			],
			"stateMutability": "view",
			"type": "function"
		},
		{
			"inputs": [
				{
					"internalType": "uint256",
					"name": "",
					"type": "uint256"
				}
			],
			"name": "pokemonAttributes",
			"outputs": [
				{
					"internalType": "string",
					"name": "name",
					"type": "string"
				},
				{
					"internalType": "string",
					"name": "description",
					"type": "string"
				},
				{
					"internalType": "string",
					"name": "primaryType",
					"type": "string"
				},
				{
					"internalType": "string",
					"name": "secondaryType",
					"type": "string"
				}
			],
			"stateMutability": "view",
			"type": "function"
		},
		{
			"inputs": [
				{
					"internalType": "address",
					"name": "from",
					"type": "address"
				},
				{
					"internalType": "address",
					"name": "to",
					"type": "address"
				},
				{
					"internalType": "uint256",
					"name": "tokenId",
					"type": "uint256"
				}
			],
			"name": "safeTransferFrom",
			"outputs": [],
			"stateMutability": "nonpayable",
			"type": "function"
		},
		{
			"inputs": [
				{
					"internalType": "address",
					"name": "from",
					"type": "address"
				},
				{
					"internalType": "address",
					"name": "to",
					"type": "address"
				},
				{
					"internalType": "uint256",
					"name": "tokenId",
					"type": "uint256"
				},
				{
					"internalType": "bytes",
					"name": "_data",
					"type": "bytes"
				}
			],
			"name": "safeTransferFrom",
			"outputs": [],
			"stateMutability": "nonpayable",
			"type": "function"
		},
		{
			"inputs": [
				{
					"internalType": "address",
					"name": "operator",
					"type": "address"
				},
				{
					"internalType": "bool",
					"name": "approved",
					"type": "bool"
				}
			],
			"name": "setApprovalForAll",
			"outputs": [],
			"stateMutability": "nonpayable",
			"type": "function"
		},
		{
			"inputs": [
				{
					"internalType": "bytes4",
					"name": "interfaceId",
					"type": "bytes4"
				}
			],
			"name": "supportsInterface",
			"outputs": [
				{
					"internalType": "bool",
					"name": "",
					"type": "bool"
				}
			],
			"stateMutability": "view",
			"type": "function"
		},
		{
			"inputs": [],
			"name": "symbol",
			"outputs": [
				{
					"internalType": "string",
					"name": "",
					"type": "string"
				}
			],
			"stateMutability": "view",
			"type": "function"
		},
		{
			"inputs": [
				{
					"internalType": "uint256",
					"name": "tokenId",
					"type": "uint256"
				}
			],
			"name": "tokenURI",
			"outputs": [
				{
					"internalType": "string",
					"name": "",
					"type": "string"
				}
			],
			"stateMutability": "view",
			"type": "function"
		},
		{
			"inputs": [
				{
					"internalType": "address",
					"name": "from",
					"type": "address"
				},
				{
					"internalType": "address",
					"name": "to",
					"type": "address"
				},
				{
					"internalType": "uint256",
					"name": "tokenId",
					"type": "uint256"
				}
			],
			"name": "transferFrom",
			"outputs": [],
			"stateMutability": "nonpayable",
			"type": "function"
		}
	],
	"bytecode": "0x6080604052600260095560fa600a5560405180610120016040528060ef81526020016200518060ef9139600b90805190602001906200004092919062000ae6565b506040518060800160405280604e815260200162005300604e9139600c90805190602001906200007292919062000ae6565b506040518060600160405280603881526020016200514860389139600d9080519060200190620000a492919062000ae6565b506040518060400160405280601481526020017f3c2f746578743e3c696d61676520687265663d22000000000000000000000000815250600e9080519060200190620000f292919062000ae6565b506040518060800160405280604181526020016200540b60419139600f90805190602001906200012492919062000ae6565b506040518060a001604052806040518060400160405280600781526020017f233738433835300000000000000000000000000000000000000000000000000081525081526020016040518060400160405280600781526020017f234630383033300000000000000000000000000000000000000000000000000081525081526020016040518060400160405280600781526020017f233638393046300000000000000000000000000000000000000000000000000081525081526020016040518060400160405280600781526020017f234638443033300000000000000000000000000000000000000000000000000081525081526020016040518060400160405280600781526020017f234138413837380000000000000000000000000000000000000000000000000081525081525060119060056200026792919062000b77565b506040518060a00160405280604051806102400160405280610216815260200162004a0e61021691398152602001604051806102800160405280610242815260200162004e4661024291398152602001604051806102600160405280610222815260200162004c24610222913981526020016040518061022001604052806101fe8152602001620057fb6101fe91398152602001604051806102800160405280610252815260200162005508610252913981525060129060056200032d92919062000b77565b503480156200033b57600080fd5b506040518060400160405280601681526020017f504b2059656c6c6f77204e4654205265666163746f72000000000000000000008152506040518060400160405280600881526020017f504b59454c4c4f570000000000000000000000000000000000000000000000008152508160009080519060200190620003c092919062000ae6565b508060019080519060200190620003d992919062000ae6565b505050620003ec620003f260201b60201c565b62000cd0565b601060405180608001604052806040518060400160405280600981526020017f42756c626173617572000000000000000000000000000000000000000000000081525081526020016040518060c00160405280609181526020016200526f6091913981526020016040518060400160405280600581526020017f477261737300000000000000000000000000000000000000000000000000000081525081526020016040518060400160405280600681526020017f506f69736f6e0000000000000000000000000000000000000000000000000000815250815250908060018154018082558091505060019003906000526020600020906004020160009091909190915060008201518160000190805190602001906200051492919062000ae6565b5060208201518160010190805190602001906200053392919062000ae6565b5060408201518160020190805190602001906200055292919062000ae6565b5060608201518160030190805190602001906200057192919062000ae6565b505050601060405180608001604052806040518060400160405280600a81526020017f436861726d616e6465720000000000000000000000000000000000000000000081525081526020016040518060e0016040528060bc81526020016200544c60bc913981526020016040518060400160405280600481526020017f4669726500000000000000000000000000000000000000000000000000000000815250815260200160405180602001604052806000815250815250908060018154018082558091505060019003906000526020600020906004020160009091909190915060008201518160000190805190602001906200067092919062000ae6565b5060208201518160010190805190602001906200068f92919062000ae6565b506040820151816002019080519060200190620006ae92919062000ae6565b506060820151816003019080519060200190620006cd92919062000ae6565b505050601060405180608001604052806040518060400160405280600881526020017f5371756972746c6500000000000000000000000000000000000000000000000081525081526020016040518060e0016040528060bd81526020016200534e60bd913981526020016040518060400160405280600581526020017f576174657200000000000000000000000000000000000000000000000000000081525081526020016040518060200160405280600081525081525090806001815401808255809150506001900390600052602060002090600402016000909190919091506000820151816000019080519060200190620007cc92919062000ae6565b506020820151816001019080519060200190620007eb92919062000ae6565b5060408201518160020190805190602001906200080a92919062000ae6565b5060608201518160030190805190602001906200082992919062000ae6565b505050601060405180608001604052806040518060400160405280600781526020017f50696b616368750000000000000000000000000000000000000000000000000081525081526020016040518060e0016040528060c081526020016200508860c0913981526020016040518060400160405280600881526020017f456c656374726963000000000000000000000000000000000000000000000000815250815260200160405180602001604052806000815250815250908060018154018082558091505060019003906000526020600020906004020160009091909190915060008201518160000190805190602001906200092892919062000ae6565b5060208201518160010190805190602001906200094792919062000ae6565b5060408201518160020190805190602001906200096692919062000ae6565b5060608201518160030190805190602001906200098592919062000ae6565b505050601060405180608001604052806040518060400160405280600581526020017f456576656500000000000000000000000000000000000000000000000000000081525081526020016040518060e0016040528060a181526020016200575a60a1913981526020016040518060400160405280600481526020017f46697265000000000000000000000000000000000000000000000000000000008152508152602001604051806020016040528060008152508152509080600181540180825580915050600190039060005260206000209060040201600090919091909150600082015181600001908051906020019062000a8492919062000ae6565b50602082015181600101908051906020019062000aa392919062000ae6565b50604082015181600201908051906020019062000ac292919062000ae6565b50606082015181600301908051906020019062000ae192919062000ae6565b505050565b82805462000af49062000c6b565b90600052602060002090601f01602090048101928262000b18576000855562000b64565b82601f1062000b3357805160ff191683800117855562000b64565b8280016001018555821562000b64579182015b8281111562000b6357825182559160200191906001019062000b46565b5b50905062000b73919062000bde565b5090565b82805482825590600052602060002090810192821562000bcb579160200282015b8281111562000bca57825182908051906020019062000bb992919062000ae6565b509160200191906001019062000b98565b5b50905062000bda919062000bfd565b5090565b5b8082111562000bf957600081600090555060010162000bdf565b5090565b5b8082111562000c21576000818162000c17919062000c25565b5060010162000bfe565b5090565b50805462000c339062000c6b565b6000825580601f1062000c47575062000c68565b601f01602090049060005260206000209081019062000c67919062000bde565b5b50565b6000600282049050600182168062000c8457607f821691505b6020821081141562000c9b5762000c9a62000ca1565b5b50919050565b7f4e487b7100000000000000000000000000000000000000000000000000000000600052602260045260246000fd5b613d2e8062000ce06000396000f3fe608060405234801561001057600080fd5b50600436106101165760003560e01c806370a08231116100a2578063b260325a11610071578063b260325a146102cd578063b88d4fde14610300578063c87b56dd1461031c578063e985e9c51461034c578063f0292a031461037c57610116565b806370a08231146102455780638db9653f1461027557806395d89b4114610293578063a22cb465146102b157610116565b80630aaef285116100e95780630aaef285146101b557806323b872dd146101d357806342842e0e146101ef57806360cc92831461020b5780636352211e1461021557610116565b806301ffc9a71461011b57806306fdde031461014b578063081812fc14610169578063095ea7b314610199575b600080fd5b61013560048036038101906101309190612783565b61039a565b6040516101429190612ed5565b60405180910390f35b61015361047c565b6040516101609190612ef0565b60405180910390f35b610183600480360381019061017e91906127d5565b61050e565b6040516101909190612e6e565b60405180910390f35b6101b360048036038101906101ae9190612747565b610593565b005b6101bd6106ab565b6040516101ca91906131b3565b60405180910390f35b6101ed60048036038101906101e89190612641565b6106b1565b005b61020960048036038101906102049190612641565b610711565b005b610213610731565b005b61022f600480360381019061022a91906127d5565b610bdf565b60405161023c9190612e6e565b60405180910390f35b61025f600480360381019061025a91906125dc565b610c91565b60405161026c91906131b3565b60405180910390f35b61027d610d49565b60405161028a91906131b3565b60405180910390f35b61029b610d5a565b6040516102a89190612ef0565b60405180910390f35b6102cb60048036038101906102c6919061270b565b610dec565b005b6102e760048036038101906102e291906127d5565b610f6d565b6040516102f79493929190612f12565b60405180910390f35b61031a60048036038101906103159190612690565b6111cd565b005b610336600480360381019061033191906127d5565b61122f565b6040516103439190612ef0565b60405180910390f35b61036660048036038101906103619190612605565b611381565b6040516103739190612ed5565b60405180910390f35b610384611415565b60405161039191906131b3565b60405180910390f35b60007f80ac58cd000000000000000000000000000000000000000000000000000000007bffffffffffffffffffffffffffffffffffffffffffffffffffffffff1916827bffffffffffffffffffffffffffffffffffffffffffffffffffffffff1916148061046557507f5b5e139f000000000000000000000000000000000000000000000000000000007bffffffffffffffffffffffffffffffffffffffffffffffffffffffff1916827bffffffffffffffffffffffffffffffffffffffffffffffffffffffff1916145b8061047557506104748261141b565b5b9050919050565b60606000805461048b90613447565b80601f01602080910402602001604051908101604052809291908181526020018280546104b790613447565b80156105045780601f106104d957610100808354040283529160200191610504565b820191906000526020600020905b8154815290600101906020018083116104e757829003601f168201915b5050505050905090565b600061051982611485565b610558576040517f08c379a000000000000000000000000000000000000000000000000000000000815260040161054f906130d3565b60405180910390fd5b6004600083815260200190815260200160002060009054906101000a900473ffffffffffffffffffffffffffffffffffffffff169050919050565b600061059e82610bdf565b90508073ffffffffffffffffffffffffffffffffffffffff168373ffffffffffffffffffffffffffffffffffffffff16141561060f576040517f08c379a000000000000000000000000000000000000000000000000000000000815260040161060690613133565b60405180910390fd5b8073ffffffffffffffffffffffffffffffffffffffff1661062e6114f1565b73ffffffffffffffffffffffffffffffffffffffff16148061065d575061065c816106576114f1565b611381565b5b61069c576040517f08c379a000000000000000000000000000000000000000000000000000000000815260040161069390613013565b60405180910390fd5b6106a683836114f9565b505050565b60095481565b6106c26106bc6114f1565b826115b2565b610701576040517f08c379a00000000000000000000000000000000000000000000000000000000081526004016106f890613173565b60405180910390fd5b61070c838383611690565b505050565b61072c838383604051806020016040528060008152506111cd565b505050565b600954600860003373ffffffffffffffffffffffffffffffffffffffff1673ffffffffffffffffffffffffffffffffffffffff16815260200190815260200160002054106107b4576040517f08c379a00000000000000000000000000000000000000000000000000000000081526004016107ab90613153565b60405180910390fd5b600a546107c160076118ec565b10610801576040517f08c379a00000000000000000000000000000000000000000000000000000000081526004016107f890613193565b60405180910390fd5b61080b60076118fa565b600061081760076118ec565b9050600061082482611910565b9050600061083183611960565b905060006010838154811061086f577f4e487b7100000000000000000000000000000000000000000000000000000000600052603260045260246000fd5b906000526020600020906004020160405180608001604052908160008201805461089890613447565b80601f01602080910402602001604051908101604052809291908181526020018280546108c490613447565b80156109115780601f106108e657610100808354040283529160200191610911565b820191906000526020600020905b8154815290600101906020018083116108f457829003601f168201915b5050505050815260200160018201805461092a90613447565b80601f016020809104026020016040519081016040528092919081815260200182805461095690613447565b80156109a35780601f10610978576101008083540402835291602001916109a3565b820191906000526020600020905b81548152906001019060200180831161098657829003601f168201915b505050505081526020016002820180546109bc90613447565b80601f01602080910402602001604051908101604052809291908181526020018280546109e890613447565b8015610a355780601f10610a0a57610100808354040283529160200191610a35565b820191906000526020600020905b815481529060010190602001808311610a1857829003601f168201915b50505050508152602001600382018054610a4e90613447565b80601f0160208091040260200160405190810160405280929190818152602001828054610a7a90613447565b8015610ac75780601f10610a9c57610100808354040283529160200191610ac7565b820191906000526020600020905b815481529060010190602001808311610aaa57829003601f168201915b50505050508152505090506000610ade84846119b8565b90506000610aec8383611ad5565b90508460136000888152602001908152602001600020819055508360146000888152602001908152602001600020819055506001600860003373ffffffffffffffffffffffffffffffffffffffff1673ffffffffffffffffffffffffffffffffffffffff1681526020019081526020016000206000828254610b6e919061327c565b92505081905550610b7f3387611b46565b610b898682611b64565b3373ffffffffffffffffffffffffffffffffffffffff167f52277f0b4a9b555c5aa96900a13546f972bda413737ec164aac947c87eec602487604051610bcf91906131b3565b60405180910390a2505050505050565b6000806002600084815260200190815260200160002060009054906101000a900473ffffffffffffffffffffffffffffffffffffffff169050600073ffffffffffffffffffffffffffffffffffffffff168173ffffffffffffffffffffffffffffffffffffffff161415610c88576040517f08c379a0000000000000000000000000000000000000000000000000000000008152600401610c7f90613053565b60405180910390fd5b80915050919050565b60008073ffffffffffffffffffffffffffffffffffffffff168273ffffffffffffffffffffffffffffffffffffffff161415610d02576040517f08c379a0000000000000000000000000000000000000000000000000000000008152600401610cf990613033565b60405180910390fd5b600360008373ffffffffffffffffffffffffffffffffffffffff1673ffffffffffffffffffffffffffffffffffffffff168152602001908152602001600020549050919050565b6000610d5560076118ec565b905090565b606060018054610d6990613447565b80601f0160208091040260200160405190810160405280929190818152602001828054610d9590613447565b8015610de25780601f10610db757610100808354040283529160200191610de2565b820191906000526020600020905b815481529060010190602001808311610dc557829003601f168201915b5050505050905090565b610df46114f1565b73ffffffffffffffffffffffffffffffffffffffff168273ffffffffffffffffffffffffffffffffffffffff161415610e62576040517f08c379a0000000000000000000000000000000000000000000000000000000008152600401610e5990612fd3565b60405180910390fd5b8060056000610e6f6114f1565b73ffffffffffffffffffffffffffffffffffffffff1673ffffffffffffffffffffffffffffffffffffffff16815260200190815260200160002060008473ffffffffffffffffffffffffffffffffffffffff1673ffffffffffffffffffffffffffffffffffffffff16815260200190815260200160002060006101000a81548160ff0219169083151502179055508173ffffffffffffffffffffffffffffffffffffffff16610f1c6114f1565b73ffffffffffffffffffffffffffffffffffffffff167f17307eab39ab6107e8899845ad3d59bd9653f200f220920489ca2b5937696c3183604051610f619190612ed5565b60405180910390a35050565b60108181548110610f7d57600080fd5b9060005260206000209060040201600091509050806000018054610fa090613447565b80601f0160208091040260200160405190810160405280929190818152602001828054610fcc90613447565b80156110195780601f10610fee57610100808354040283529160200191611019565b820191906000526020600020905b815481529060010190602001808311610ffc57829003601f168201915b50505050509080600101805461102e90613447565b80601f016020809104026020016040519081016040528092919081815260200182805461105a90613447565b80156110a75780601f1061107c576101008083540402835291602001916110a7565b820191906000526020600020905b81548152906001019060200180831161108a57829003601f168201915b5050505050908060020180546110bc90613447565b80601f01602080910402602001604051908101604052809291908181526020018280546110e890613447565b80156111355780601f1061110a57610100808354040283529160200191611135565b820191906000526020600020905b81548152906001019060200180831161111857829003601f168201915b50505050509080600301805461114a90613447565b80601f016020809104026020016040519081016040528092919081815260200182805461117690613447565b80156111c35780601f10611198576101008083540402835291602001916111c3565b820191906000526020600020905b8154815290600101906020018083116111a657829003601f168201915b5050505050905084565b6111de6111d86114f1565b836115b2565b61121d576040517f08c379a000000000000000000000000000000000000000000000000000000000815260040161121490613173565b60405180910390fd5b61122984848484611bd8565b50505050565b606061123a82611485565b611279576040517f08c379a0000000000000000000000000000000000000000000000000000000008152600401611270906130b3565b60405180910390fd5b600060066000848152602001908152602001600020805461129990613447565b80601f01602080910402602001604051908101604052809291908181526020018280546112c590613447565b80156113125780601f106112e757610100808354040283529160200191611312565b820191906000526020600020905b8154815290600101906020018083116112f557829003601f168201915b505050505090506000611323611c34565b905060008151141561133957819250505061137c565b60008251111561136e578082604051602001611356929190612ce6565b6040516020818303038152906040529250505061137c565b61137784611c4b565b925050505b919050565b6000600560008473ffffffffffffffffffffffffffffffffffffffff1673ffffffffffffffffffffffffffffffffffffffff16815260200190815260200160002060008373ffffffffffffffffffffffffffffffffffffffff1673ffffffffffffffffffffffffffffffffffffffff16815260200190815260200160002060009054906101000a900460ff16905092915050565b600a5481565b60007f01ffc9a7000000000000000000000000000000000000000000000000000000007bffffffffffffffffffffffffffffffffffffffffffffffffffffffff1916827bffffffffffffffffffffffffffffffffffffffffffffffffffffffff1916149050919050565b60008073ffffffffffffffffffffffffffffffffffffffff166002600084815260200190815260200160002060009054906101000a900473ffffffffffffffffffffffffffffffffffffffff1673ffffffffffffffffffffffffffffffffffffffff1614159050919050565b600033905090565b816004600083815260200190815260200160002060006101000a81548173ffffffffffffffffffffffffffffffffffffffff021916908373ffffffffffffffffffffffffffffffffffffffff160217905550808273ffffffffffffffffffffffffffffffffffffffff1661156c83610bdf565b73ffffffffffffffffffffffffffffffffffffffff167f8c5be1e5ebec7d5bd14f71427d1e84f3dd0314c0f7b2291e5b200ac8c7c3b92560405160405180910390a45050565b60006115bd82611485565b6115fc576040517f08c379a00000000000000000000000000000000000000000000000000000000081526004016115f390612ff3565b60405180910390fd5b600061160783610bdf565b90508073ffffffffffffffffffffffffffffffffffffffff168473ffffffffffffffffffffffffffffffffffffffff16148061167657508373ffffffffffffffffffffffffffffffffffffffff1661165e8461050e565b73ffffffffffffffffffffffffffffffffffffffff16145b8061168757506116868185611381565b5b91505092915050565b8273ffffffffffffffffffffffffffffffffffffffff166116b082610bdf565b73ffffffffffffffffffffffffffffffffffffffff1614611706576040517f08c379a00000000000000000000000000000000000000000000000000000000081526004016116fd906130f3565b60405180910390fd5b600073ffffffffffffffffffffffffffffffffffffffff168273ffffffffffffffffffffffffffffffffffffffff161415611776576040517f08c379a000000000000000000000000000000000000000000000000000000000815260040161176d90612fb3565b60405180910390fd5b611781838383611cf2565b61178c6000826114f9565b6001600360008573ffffffffffffffffffffffffffffffffffffffff1673ffffffffffffffffffffffffffffffffffffffff16815260200190815260200160002060008282546117dc919061335d565b925050819055506001600360008473ffffffffffffffffffffffffffffffffffffffff1673ffffffffffffffffffffffffffffffffffffffff1681526020019081526020016000206000828254611833919061327c565b92505081905550816002600083815260200190815260200160002060006101000a81548173ffffffffffffffffffffffffffffffffffffffff021916908373ffffffffffffffffffffffffffffffffffffffff160217905550808273ffffffffffffffffffffffffffffffffffffffff168473ffffffffffffffffffffffffffffffffffffffff167fddf252ad1be2c89b69c2b068fc378daa952ba7f163c4a11628f55a4df523b3ef60405160405180910390a4505050565b600081600001549050919050565b6001816000016000828254019250508190555050565b6000806119454261192085611cf7565b604051602001611931929190612e3b565b604051602081830303815290604052611ea4565b90506010805490508161195891906134fd565b915050919050565b6000806119954261197085611cf7565b604051602001611981929190612de6565b604051602081830303815290604052611ea4565b905060056050826119a691906134fd565b6119b0919061327c565b915050919050565b60606000600b601185815481106119f8577f4e487b7100000000000000000000000000000000000000000000000000000000600052603260045260246000fd5b90600052602060002001600c60108781548110611a3e577f4e487b7100000000000000000000000000000000000000000000000000000000600052603260045260246000fd5b9060005260206000209060040201600001600d611a5a88611cf7565b600e60128b81548110611a96577f4e487b7100000000000000000000000000000000000000000000000000000000600052603260045260246000fd5b90600052602060002001600f604051602001611aba99989796959493929190612d0a565b60405160208183030381529060405290508091505092915050565b60606000611b1584600001518560200151611aef86611ed7565b604051602001611b0193929190612d89565b604051602081830303815290604052611ed7565b9050600081604051602001611b2a9190612e19565b6040516020818303038152906040529050809250505092915050565b611b60828260405180602001604052806000815250612095565b5050565b611b6d82611485565b611bac576040517f08c379a0000000000000000000000000000000000000000000000000000000008152600401611ba390613073565b60405180910390fd5b80600660008481526020019081526020016000209080519060200190611bd3929190612468565b505050565b611be3848484611690565b611bef848484846120f0565b611c2e576040517f08c379a0000000000000000000000000000000000000000000000000000000008152600401611c2590612f73565b60405180910390fd5b50505050565b606060405180602001604052806000815250905090565b6060611c5682611485565b611c95576040517f08c379a0000000000000000000000000000000000000000000000000000000008152600401611c8c90613113565b60405180910390fd5b6000611c9f611c34565b90506000815111611cbf5760405180602001604052806000815250611cea565b80611cc984611cf7565b604051602001611cda929190612ce6565b6040516020818303038152906040525b915050919050565b505050565b60606000821415611d3f576040518060400160405280600181526020017f30000000000000000000000000000000000000000000000000000000000000008152509050611e9f565b600082905060005b60008214611d71578080611d5a906134aa565b915050600a82611d6a91906132d2565b9150611d47565b60008167ffffffffffffffff811115611db3577f4e487b7100000000000000000000000000000000000000000000000000000000600052604160045260246000fd5b6040519080825280601f01601f191660200182016040528015611de55781602001600182028036833780820191505090505b5090505b60008514611e9857600182611dfe919061335d565b9150600a85611e0d91906134fd565b6030611e19919061327c565b60f81b818381518110611e55577f4e487b7100000000000000000000000000000000000000000000000000000000600052603260045260246000fd5b60200101907effffffffffffffffffffffffffffffffffffffffffffffffffffffffffffff1916908160001a905350600a85611e9191906132d2565b9450611de9565b8093505050505b919050565b600081604051602001611eb79190612ccf565b6040516020818303038152906040528051906020012060001c9050919050565b60606000825190506000811415611f005760405180602001604052806000815250915050612090565b60006003600283611f11919061327c565b611f1b91906132d2565b6004611f279190613303565b90506000602082611f38919061327c565b67ffffffffffffffff811115611f77577f4e487b7100000000000000000000000000000000000000000000000000000000600052604160045260246000fd5b6040519080825280601f01601f191660200182016040528015611fa95781602001600182028036833780820191505090505b5090506000604051806060016040528060408152602001613cb9604091399050600181016020830160005b8681101561204d5760038101905062ffffff818a015116603f8160121c168401518060081b905060ff603f83600c1c1686015116810190508060081b905060ff603f8360061c1686015116810190508060081b905060ff603f831686015116810190508060e01b90508084526004840193505050611fd4565b506003860660018114612067576002811461207757612082565b613d3d60f01b6002830352612082565b603d60f81b60018303525b508484525050819450505050505b919050565b61209f8383612287565b6120ac60008484846120f0565b6120eb576040517f08c379a00000000000000000000000000000000000000000000000000000000081526004016120e290612f73565b60405180910390fd5b505050565b60006121118473ffffffffffffffffffffffffffffffffffffffff16612455565b1561227a578373ffffffffffffffffffffffffffffffffffffffff1663150b7a0261213a6114f1565b8786866040518563ffffffff1660e01b815260040161215c9493929190612e89565b602060405180830381600087803b15801561217657600080fd5b505af19250505080156121a757506040513d601f19601f820116820180604052508101906121a491906127ac565b60015b61222a573d80600081146121d7576040519150601f19603f3d011682016040523d82523d6000602084013e6121dc565b606091505b50600081511415612222576040517f08c379a000000000000000000000000000000000000000000000000000000000815260040161221990612f73565b60405180910390fd5b805181602001fd5b63150b7a0260e01b7bffffffffffffffffffffffffffffffffffffffffffffffffffffffff1916817bffffffffffffffffffffffffffffffffffffffffffffffffffffffff19161491505061227f565b600190505b949350505050565b600073ffffffffffffffffffffffffffffffffffffffff168273ffffffffffffffffffffffffffffffffffffffff1614156122f7576040517f08c379a00000000000000000000000000000000000000000000000000000000081526004016122ee90613093565b60405180910390fd5b61230081611485565b15612340576040517f08c379a000000000000000000000000000000000000000000000000000000000815260040161233790612f93565b60405180910390fd5b61234c60008383611cf2565b6001600360008473ffffffffffffffffffffffffffffffffffffffff1673ffffffffffffffffffffffffffffffffffffffff168152602001908152602001600020600082825461239c919061327c565b92505081905550816002600083815260200190815260200160002060006101000a81548173ffffffffffffffffffffffffffffffffffffffff021916908373ffffffffffffffffffffffffffffffffffffffff160217905550808273ffffffffffffffffffffffffffffffffffffffff16600073ffffffffffffffffffffffffffffffffffffffff167fddf252ad1be2c89b69c2b068fc378daa952ba7f163c4a11628f55a4df523b3ef60405160405180910390a45050565b600080823b905060008111915050919050565b82805461247490613447565b90600052602060002090601f01602090048101928261249657600085556124dd565b82601f106124af57805160ff19168380011785556124dd565b828001600101855582156124dd579182015b828111156124dc5782518255916020019190600101906124c1565b5b5090506124ea91906124ee565b5090565b5b808211156125075760008160009055506001016124ef565b5090565b600061251e612519846131f3565b6131ce565b90508281526020810184848401111561253657600080fd5b612541848285613405565b509392505050565b60008135905061255881613c5c565b92915050565b60008135905061256d81613c73565b92915050565b60008135905061258281613c8a565b92915050565b60008151905061259781613c8a565b92915050565b600082601f8301126125ae57600080fd5b81356125be84826020860161250b565b91505092915050565b6000813590506125d681613ca1565b92915050565b6000602082840312156125ee57600080fd5b60006125fc84828501612549565b91505092915050565b6000806040838503121561261857600080fd5b600061262685828601612549565b925050602061263785828601612549565b9150509250929050565b60008060006060848603121561265657600080fd5b600061266486828701612549565b935050602061267586828701612549565b9250506040612686868287016125c7565b9150509250925092565b600080600080608085870312156126a657600080fd5b60006126b487828801612549565b94505060206126c587828801612549565b93505060406126d6878288016125c7565b925050606085013567ffffffffffffffff8111156126f357600080fd5b6126ff8782880161259d565b91505092959194509250565b6000806040838503121561271e57600080fd5b600061272c85828601612549565b925050602061273d8582860161255e565b9150509250929050565b6000806040838503121561275a57600080fd5b600061276885828601612549565b9250506020612779858286016125c7565b9150509250929050565b60006020828403121561279557600080fd5b60006127a384828501612573565b91505092915050565b6000602082840312156127be57600080fd5b60006127cc84828501612588565b91505092915050565b6000602082840312156127e757600080fd5b60006127f5848285016125c7565b91505092915050565b61280781613391565b82525050565b612816816133a3565b82525050565b600061282782613239565b612831818561324f565b9350612841818560208601613414565b61284a816135ea565b840191505092915050565b600061286082613244565b61286a8185613260565b935061287a818560208601613414565b612883816135ea565b840191505092915050565b600061289982613244565b6128a38185613271565b93506128b3818560208601613414565b80840191505092915050565b600081546128cc81613447565b6128d68186613271565b945060018216600081146128f1576001811461290257612935565b60ff19831686528186019350612935565b61290b85613224565b60005b8381101561292d5781548189015260018201915060208101905061290e565b838801955050505b50505092915050565b600061294b601383613271565b9150612956826135fb565b601382019050919050565b600061296e603283613260565b915061297982613624565b604082019050919050565b6000612991601c83613260565b915061299c82613673565b602082019050919050565b60006129b4602483613260565b91506129bf8261369c565b604082019050919050565b60006129d7601983613260565b91506129e2826136eb565b602082019050919050565b60006129fa602c83613260565b9150612a0582613714565b604082019050919050565b6000612a1d603883613260565b9150612a2882613763565b604082019050919050565b6000612a40602a83613260565b9150612a4b826137b2565b604082019050919050565b6000612a63602983613260565b9150612a6e82613801565b604082019050919050565b6000612a86602e83613260565b9150612a9182613850565b604082019050919050565b6000612aa9600283613271565b9150612ab48261389f565b600282019050919050565b6000612acc602083613260565b9150612ad7826138c8565b602082019050919050565b6000612aef603183613260565b9150612afa826138f1565b604082019050919050565b6000612b12602c83613260565b9150612b1d82613940565b604082019050919050565b6000612b35602983613260565b9150612b408261398f565b604082019050919050565b6000612b58602f83613260565b9150612b63826139de565b604082019050919050565b6000612b7b602783613271565b9150612b8682613a2d565b602782019050919050565b6000612b9e600a83613271565b9150612ba982613a7c565b600a82019050919050565b6000612bc1600583613271565b9150612bcc82613aa5565b600582019050919050565b6000612be4602183613260565b9150612bef82613ace565b604082019050919050565b6000612c07602483613260565b9150612c1282613b1d565b604082019050919050565b6000612c2a601d83613271565b9150612c3582613b6c565b601d82019050919050565b6000612c4d600783613271565b9150612c5882613b95565b600782019050919050565b6000612c70603183613260565b9150612c7b82613bbe565b604082019050919050565b6000612c93602383613260565b9150612c9e82613c0d565b604082019050919050565b612cb2816133fb565b82525050565b612cc9612cc4826133fb565b6134f3565b82525050565b6000612cdb828461288e565b915081905092915050565b6000612cf2828561288e565b9150612cfe828461288e565b91508190509392505050565b6000612d16828c6128bf565b9150612d22828b6128bf565b9150612d2e828a6128bf565b9150612d3a82896128bf565b9150612d4682886128bf565b9150612d52828761288e565b9150612d5e82866128bf565b9150612d6a82856128bf565b9150612d7682846128bf565b91508190509a9950505050505050505050565b6000612d9482612b91565b9150612da0828661288e565b9150612dab8261293e565b9150612db7828561288e565b9150612dc282612b6e565b9150612dce828461288e565b9150612dd982612a9c565b9150819050949350505050565b6000612df182612bb4565b9150612dfd8285612cb8565b602082019150612e0d828461288e565b91508190509392505050565b6000612e2482612c1d565b9150612e30828461288e565b915081905092915050565b6000612e4682612c40565b9150612e528285612cb8565b602082019150612e62828461288e565b91508190509392505050565b6000602082019050612e8360008301846127fe565b92915050565b6000608082019050612e9e60008301876127fe565b612eab60208301866127fe565b612eb86040830185612ca9565b8181036060830152612eca818461281c565b905095945050505050565b6000602082019050612eea600083018461280d565b92915050565b60006020820190508181036000830152612f0a8184612855565b905092915050565b60006080820190508181036000830152612f2c8187612855565b90508181036020830152612f408186612855565b90508181036040830152612f548185612855565b90508181036060830152612f688184612855565b905095945050505050565b60006020820190508181036000830152612f8c81612961565b9050919050565b60006020820190508181036000830152612fac81612984565b9050919050565b60006020820190508181036000830152612fcc816129a7565b9050919050565b60006020820190508181036000830152612fec816129ca565b9050919050565b6000602082019050818103600083015261300c816129ed565b9050919050565b6000602082019050818103600083015261302c81612a10565b9050919050565b6000602082019050818103600083015261304c81612a33565b9050919050565b6000602082019050818103600083015261306c81612a56565b9050919050565b6000602082019050818103600083015261308c81612a79565b9050919050565b600060208201905081810360008301526130ac81612abf565b9050919050565b600060208201905081810360008301526130cc81612ae2565b9050919050565b600060208201905081810360008301526130ec81612b05565b9050919050565b6000602082019050818103600083015261310c81612b28565b9050919050565b6000602082019050818103600083015261312c81612b4b565b9050919050565b6000602082019050818103600083015261314c81612bd7565b9050919050565b6000602082019050818103600083015261316c81612bfa565b9050919050565b6000602082019050818103600083015261318c81612c63565b9050919050565b600060208201905081810360008301526131ac81612c86565b9050919050565b60006020820190506131c86000830184612ca9565b92915050565b60006131d86131e9565b90506131e48282613479565b919050565b6000604051905090565b600067ffffffffffffffff82111561320e5761320d6135bb565b5b613217826135ea565b9050602081019050919050565b60008190508160005260206000209050919050565b600081519050919050565b600081519050919050565b600082825260208201905092915050565b600082825260208201905092915050565b600081905092915050565b6000613287826133fb565b9150613292836133fb565b9250827fffffffffffffffffffffffffffffffffffffffffffffffffffffffffffffffff038211156132c7576132c661352e565b5b828201905092915050565b60006132dd826133fb565b91506132e8836133fb565b9250826132f8576132f761355d565b5b828204905092915050565b600061330e826133fb565b9150613319836133fb565b9250817fffffffffffffffffffffffffffffffffffffffffffffffffffffffffffffffff04831182151516156133525761335161352e565b5b828202905092915050565b6000613368826133fb565b9150613373836133fb565b9250828210156133865761338561352e565b5b828203905092915050565b600061339c826133db565b9050919050565b60008115159050919050565b60007fffffffff0000000000000000000000000000000000000000000000000000000082169050919050565b600073ffffffffffffffffffffffffffffffffffffffff82169050919050565b6000819050919050565b82818337600083830152505050565b60005b83811015613432578082015181840152602081019050613417565b83811115613441576000848401525b50505050565b6000600282049050600182168061345f57607f821691505b602082108114156134735761347261358c565b5b50919050565b613482826135ea565b810181811067ffffffffffffffff821117156134a1576134a06135bb565b5b80604052505050565b60006134b5826133fb565b91507fffffffffffffffffffffffffffffffffffffffffffffffffffffffffffffffff8214156134e8576134e761352e565b5b600182019050919050565b6000819050919050565b6000613508826133fb565b9150613513836133fb565b9250826135235761352261355d565b5b828206905092915050565b7f4e487b7100000000000000000000000000000000000000000000000000000000600052601160045260246000fd5b7f4e487b7100000000000000000000000000000000000000000000000000000000600052601260045260246000fd5b7f4e487b7100000000000000000000000000000000000000000000000000000000600052602260045260246000fd5b7f4e487b7100000000000000000000000000000000000000000000000000000000600052604160045260246000fd5b6000601f19601f8301169050919050565b7f222c20226465736372697074696f6e223a202200000000000000000000000000600082015250565b7f4552433732313a207472616e7366657220746f206e6f6e20455243373231526560008201527f63656976657220696d706c656d656e7465720000000000000000000000000000602082015250565b7f4552433732313a20746f6b656e20616c7265616479206d696e74656400000000600082015250565b7f4552433732313a207472616e7366657220746f20746865207a65726f2061646460008201527f7265737300000000000000000000000000000000000000000000000000000000602082015250565b7f4552433732313a20617070726f766520746f2063616c6c657200000000000000600082015250565b7f4552433732313a206f70657261746f7220717565727920666f72206e6f6e657860008201527f697374656e7420746f6b656e0000000000000000000000000000000000000000602082015250565b7f4552433732313a20617070726f76652063616c6c6572206973206e6f74206f7760008201527f6e6572206e6f7220617070726f76656420666f7220616c6c0000000000000000602082015250565b7f4552433732313a2062616c616e636520717565727920666f7220746865207a6560008201527f726f206164647265737300000000000000000000000000000000000000000000602082015250565b7f4552433732313a206f776e657220717565727920666f72206e6f6e657869737460008201527f656e7420746f6b656e0000000000000000000000000000000000000000000000602082015250565b7f45524337323155524953746f726167653a2055524920736574206f66206e6f6e60008201527f6578697374656e7420746f6b656e000000000000000000000000000000000000602082015250565b7f227d000000000000000000000000000000000000000000000000000000000000600082015250565b7f4552433732313a206d696e7420746f20746865207a65726f2061646472657373600082015250565b7f45524337323155524953746f726167653a2055524920717565727920666f722060008201527f6e6f6e6578697374656e7420746f6b656e000000000000000000000000000000602082015250565b7f4552433732313a20617070726f76656420717565727920666f72206e6f6e657860008201527f697374656e7420746f6b656e0000000000000000000000000000000000000000602082015250565b7f4552433732313a207472616e73666572206f6620746f6b656e2074686174206960008201527f73206e6f74206f776e0000000000000000000000000000000000000000000000602082015250565b7f4552433732314d657461646174613a2055524920717565727920666f72206e6f60008201527f6e6578697374656e7420746f6b656e0000000000000000000000000000000000602082015250565b7f222c2022696d616765223a2022646174613a696d6167652f7376672b786d6c3b60008201527f6261736536342c00000000000000000000000000000000000000000000000000602082015250565b7f7b226e616d65223a202200000000000000000000000000000000000000000000600082015250565b7f4c4556454c000000000000000000000000000000000000000000000000000000600082015250565b7f4552433732313a20617070726f76616c20746f2063757272656e74206f776e6560008201527f7200000000000000000000000000000000000000000000000000000000000000602082015250565b7f596f752068617665207265616368656420796f7572206d696e74696e67206c6960008201527f6d69742e00000000000000000000000000000000000000000000000000000000602082015250565b7f646174613a6170706c69636174696f6e2f6a736f6e3b6261736536342c000000600082015250565b7f5354415254455200000000000000000000000000000000000000000000000000600082015250565b7f4552433732313a207472616e736665722063616c6c6572206973206e6f74206f60008201527f776e6572206e6f7220617070726f766564000000000000000000000000000000602082015250565b7f546865726520617265206e6f206d6f7265204e46547320666f72206d696e746960008201527f6e672e0000000000000000000000000000000000000000000000000000000000602082015250565b613c6581613391565b8114613c7057600080fd5b50565b613c7c816133a3565b8114613c8757600080fd5b50565b613c93816133af565b8114613c9e57600080fd5b50565b613caa816133fb565b8114613cb557600080fd5b5056fe4142434445464748494a4b4c4d4e4f505152535455565758595a6162636465666768696a6b6c6d6e6f707172737475767778797a303132333435363738392b2fa26469706673582212201f95e84e6d2fba1b22d8952004e93f2f8ff1a08eb3cf070f4e3b0b8017713c3964736f6c63430008040033646174613a696d6167652f706e673b6261736536342c6956424f5277304b47676f414141414e5355684555674141414367414141416f41674d41414144786b46442b414141414446424d5645574d2f31722f2f2f385a47526b49745447375847574c414141424c556c45515651596c574d4968514d4743706852572b484d2f4e55775a6c6a2f2f716c51356776372f5538687a4c6a462f2f662f676a43542b2f2b742f3330567a507a332f39583656302f427a4c35567131617657676c69567530574451313464522f45544f463159474351644149784377347738444d77384947593854774739676365574638464d694f6162657a5064667965436d5247365a7a6874356251427a486a36686b4f36457659673568465a51774d32322f77673567702f7751592f702f674270764c6f4d5441774d41465a6c6f64654c576177513573786674582f3138643041475a473766382f2f397661777841326d72572f2f2f2f613050445669427a45392b715661734f4d6677454d682b73415272776875466b4b454f5941764f715665735a6a412b426d422b732f2f2b775a2f6f455a503734772f662f7a582b6d663043314f327a342f6a2f3477772f53746f34427947537766676c6b5a6a566f726c724438476f706b446e7a31613351736e4e70494e75716c72304e6a55746243773653534742347a55514e6451416d7961334d716a37414d6741414141424a52553545726b4a6767673d3d646174613a696d6167652f706e673b6261736536342c6956424f5277304b47676f414141414e5355684555674141414367414141416f41674d41414144786b46442b414141414446424d56455745317638416a502f2f2f2f385a47526e6148722f57414141424e6b6c45515651596c574e594251634d524443582f3738465931356734495579567a4d774d4c79434d4e63416d564951356849673077724337475267764341475963356d59507369423246755a2b4437457764687a6d666776514e6c756a4b7735385a6e675a6972447a4177667638444d6f316853346b4c41342b4e4c596735775a6968566b526d4b6c414677787265757777464c4b314171786d5773463567504f6938464353366b7648342f344f4f696c45674535676247417759736e2b427a4432386749475834534649644e58575651337344716c68494f61362b762b337733586a774d7a5671316256746f4b5a363165765773307a46637863396e4c56757236746453446d796c315a7539716d58357566426651784d42775965614d4f57414646587a67742f3336346d6f455036474d4441573357433238593249446849477641776c6767774d414f5a4c4a2b6b57476f443542684253706772502f4455427269434653376b6a467544554e7336415578554a68567257474971772b74416f722b7a317243454c634b5a41555172486173676b6641584c5334414143304838324c74712f44707741414141424a52553545726b4a6767673d3d646174613a696d6167652f706e673b6261736536342c6956424f5277304b47676f414141414e5355684555674141414367414141416f41674d41414144786b46442b414141414446424d5645582f4141442f2f2f385a47526e2f6a41437a564674784141414254306c45515651596c545851763076445542414838434f672b41504a6c4d576c56516d554c6b36644c4d30714c6931704c684771324d3146645041504b416a4f7753453453756d6958646f2f51444256696e556f6e647864416d362b787157465a3839376a2f53477834666a792b50754150476f6a626f41505564474757766b4a426b62386d3265735571325a4a77796932463777627847384d7455554e30596f553430496b757a73664649784c2f466e31446266676f314c66433633513448416d45424676494647754b5a4b4148752f6278533475624543726a3746464d53506f6778564875304f666b3263723844754e7a353634555463553844714d64707861524651465077524765554936486f793249706f48576b4d57422f43774e705935502f6264714949734a6e6e74666c73644c6f634b485735466c6f315a6b796b646e364d75654b48476a4e7a4f47794f7a4f544c4e75614f52477a506b5355554e4633344e74514f6c5738476a446c72614c7a675948654766416c526f2b6b706d4e594a785272586b41764657417072686e7554646c51527a32574276714f356e6e6651432f4e4b3772644e767276427a71727972364c6c6e52332b666b486a36472b477a5576384e7341414141415355564f524b35435949493d5768656e657665722050696b6163687520636f6d6573206163726f737320736f6d657468696e67206e65772c20697420626c6173747320697420776974682061206a6f6c74206f6620656c6563747269636974792e20496620796f7520636f6d65206163726f7373206120626c61636b656e65642062657272792c20697427732065766964656e63652074686174207468697320506f6b656d6f6e206d6973746f6f6b2074686520696e74656e73697479206f6620697473206368617267652e3c2f746578743e3c7465787420783d223530252220793d223738252220746578742d616e63686f723d226d6964646c65223e4c6576656c203c73766720786d6c6e733d22687474703a2f2f7777772e77332e6f72672f323030302f73766722207072657365727665417370656374526174696f3d22784d696e594d696e206d656574222076696577426f783d223020302033353020333530223e3c7374796c653e2e62617365207b20666f6e742d73697a653a20323070783b20666f6e742d7765696768743a20626f6c643b20746578742d7472616e73666f726d3a207570706572636173653b207d3c2f7374796c653e3c726563742077696474683d223130302522206865696768743d2231303025222066696c6c3d22776869746522207374726f6b653d2242756c6261736175722063616e206265207365656e206e617070696e6720696e206272696768742073756e6c696768742e20546865726520697320612073656564206f6e20697473206261636b2e20427920736f616b696e67207570207468652073756e277320726179732c2074686520736565642067726f77732070726f67726573736976656c79206c61726765722e22207374726f6b652d77696474683d22333022202f3e3c7465787420783d223530252220793d223730252220636c6173733d22626173652220746578742d616e63686f723d226d6964646c65223e5371756972746c652773207368656c6c206973206e6f74206d6572656c79207573656420666f722070726f74656374696f6e2e20546865207368656c6c277320726f756e64656420736861706520616e64207468652067726f6f766573206f6e2069747320737572666163652068656c70206d696e696d697a6520726573697374616e636520696e2077617465722c20656e61626c696e67207468697320506f6b656d6f6e20746f207377696d2061742068696768207370656564732e22206865696768743d22313030222077696474683d2231303022207472616e73666f726d3d227472616e736c617465283132352c31313029222f3e3c2f7376673e54686520666c616d652074686174206275726e732061742074686520746970206f6620697473207461696c20697320616e20696e6469636174696f6e206f662069747320656d6f74696f6e732e2054686520666c616d6520776176657273207768656e20436861726d616e64657220697320656e6a6f79696e6720697473656c662e2049662074686520506f6b656d6f6e206265636f6d657320656e72616765642c2074686520666c616d65206275726e73206669657263656c792e646174613a696d6167652f706e673b6261736536342c6956424f5277304b47676f414141414e5355684555674141414367414141416f41674d41414144786b46442b414141414446424d5645566157696e2f2f2f385a47526d6c76564a5953366e504141414257306c45515651596c5558527355744363524148384f75426f43304f3861626154416a62616f316e693050676b7672567a4d4c4b624b326c4c56494d6d774b6e4830464c56676a796f4b577453544d45793647705079424543426f555179683464743354794e2f3034666a4333652b4f38502f494f2b623948395956476670516b544e467162636850563146516350576d6e554e53726a74524d475841345539537049393077574b66745342684b2f734255556137564d564e49734b684c75767a3663464d79637473505443316e505a465244754d2f4d506c6261464957612f4e596c645961526a7458713332424e477033696d42775355634a6f7668436f6767586b32613443654a6f51395046644446464a4e634f47786968525770636f57543644794770657364644e3152646c6d794d316b4a4c6a2f54516873455632654d417631412f4d7132526c5374626b66457a34517a76584d494e5a6972685038436f4e596b396c4c434737694b4f6c6b64684232446e47386b574e5a43517748656f5a6d6b55366f7a475961525932634d6e716c79566c4e6f37787738623263396447562f666c554b5634745a5a584e6b4235662f694f776f75567a2b6f6870545a2f44694b486936437a6a592f304334562b343069456375367741414141415355564f524b35435949493d45657665652068617320616e20756e737461626c652067656e65746963206d616b65757020746861742073756464656e6c79206d7574617465732064756520746f2074686520656e7669726f6e6d656e7420696e207768696368206974206c697665732e20526164696174696f6e2066726f6d20766172696f75732073746f6e657320636175736573207468697320506f6b656d6f6e20746f2065766f6c76652e646174613a696d6167652f706e673b6261736536342c6956424f5277304b47676f414141414e5355684555674141414367414141416f41674d41414144786b46442b414141414446424d5645586d6377442f2f2f385a47526e2f2f7742424e354c624141414248456c4551565159475158424957745755526741344c63736d43773777626867554c4335487a446348536f59507539357a7432396e2b41564f514d6e4b74713044495246343945734b7a4b7a4e71506748376a3741634b364273456938336e69466f43346d7742692b6767513939384352476b4e386d6d4b33437279795a7355747664666e643438385550344e69533959557434736344527362446578744666516c375148784d4b46484c4945314e6d43763142632f416865523747772b61774e562f44616d4b53796c6e595453585a3664596c7a4275492b71794565574e7a553951764a65796d523366733743306c6a4f437a456e6f5962736768512b367351752f6850384d564e59794750377a5877716870557174686c5a4b553974545174533572543652517a327370792b4d7a6f5836764a53395066777631645a6658356e4f68506d6a656d53384a485a69764369767773776b6a7545596f4d4453434e6c777342634739583348354a594b3235585a426344334a6e2f41666a78655234652b6a4b354d41414141415355564f524b35435949493d",
	"linkReferences": {},
	"deployedLinkReferences": {}
}